:040000005EEF00F0BF
:0E0008004D82FACF05F0FBCF06F04AED36F040
:100018004D80D8CF17F0E8CF18F0E0CF19F0FACF1D
:100028001AF0FBCF1BF0E9CF1CF0EACF1DF0E1CFAF
:100038001EF0E2CF1FF0D9CF20F0DACF21F0F3CFB6
:1000480022F0F4CF23F0F6CF24F0F7CF25F0F8CF45
:1000580026F0F5CF27F0F2A409D0F294F60E146E2C
:100068003C0E136EE0EC39F0C0EC38F027C0F5FF19
:1000780026C0F8FF25C0F7FF24C0F6FF23C0F4FF11
:1000880022C0F3FF21C0DAFF20C0D9FF1FC0E2FF62
:100098001EC0E1FF1DC0EAFF1CC0E9FF1BC0FBFF3B
:1000A8001AC0FAFF19C0E0FF18C0E8FF17C0D8FF50
:0800B8004D9010002BEF39F010
:101000000014078E4F450E1E2415179FDFC58FD67F
:1010100057471C5F260F85C7253C001F1C1F1E1F3E
:101020001E1F1F1E1F1E1F001F1D1F1E1F1E1F1FF6
:0F1030001E1F1E1F84F54C64352606F404340081
:10104000010EF66E100EF76E000EF86E0800F5CF6A
:1010500034F0350EF66E100EF76E000EF86E0800C6
:10106000F5CF33F04C6824EF1CF0000E2F6E000E0D
:101070002E6E0ED0918C770EC4EC39F0770EC4EC46
:1010800039F0919C770EC4EC39F0770EC4EC39F04E
:101090002F500EE1C90E2E5CD8B00AD074EC39F096
:1010A0000009D8A405D060EC39F00009D8B4E2D723
:1010B000000E2F6E000E2E6E2F500EE1650E2E5C70
:1010C000D8B00AD074EC39F00009D8A405D060EC8F
:1010D00039F00009D8B4F0D7000E2F6E000E2E6E36
:1010E00074EC39F00009D8A42FEF1CF060EC39F053
:1010F0000009D8A42FEF1CF00ED0918C470EC4EC41
:1011000039F0470EC4EC39F0919C470EC4EC39F02D
:10111000470EC4EC39F02F500EE1C90E2E5CD8B04A
:101120000AD074EC39F00009D8A405D060EC39F08D
:101130000009D8B4E2D7000E2F6E000E2E6E2F508D
:101140000EE1650E2E5CD8B00AD074EC39F00009BF
:10115000D8A405D060EC39F00009D8B4F0D7000E5F
:101160002F6E000E2E6E74EC39F00009D8A42FEF0C
:101170001CF060EC39F00009D8A42FEF1CF00ED061
:10118000918C500EC4EC39F0500EC4EC39F0919CA7
:10119000500EC4EC39F0500EC4EC39F02F500EE173
:1011A000C90E2E5CD8B00AD074EC39F00009D8A46E
:1011B00005D060EC39F00009D8B4E2D7000E2F6EEC
:1011C000000E2E6E2F500EE1650E2E5CD8B00AD0A8
:1011D00074EC39F00009D8A405D060EC39F00009AE
:1011E000D8B4F0D7000E2F6E000E2E6E74EC39F0CE
:1011F0000009D8A42FEF1CF060EC39F00009D8A446
:101200002FEF1CF00ED0918C590EC4EC39F0590E12
:10121000C4EC39F0919C590EC4EC39F0590EC4EC71
:1012200039F02F500EE1C90E2E5CD8B00AD074EC04
:1012300039F00009D8A405D060EC39F00009D8B421
:10124000E2D7000E2F6E000E2E6E2F500EE1650EAF
:101250002E5CD8B00AD074EC39F00009D8A405D0BF
:1012600060EC39F00009D8B4F0D7000E2F6E000EF4
:101270002E6E74EC39F00009D8A42FEF1CF060EC4E
:1012800039F00009D8A42FEF1CF00ED0918C770E06
:10129000C4EC39F0770EC4EC39F0919C770EC4ECB5
:1012A00039F0770EC4EC39F0910E2E5C010E2F58F8
:1012B000D8B00AD074EC39F00009D8A405D060EC9D
:1012C00039F00009D8B4E2D7000E2F6E000E2E6E52
:1012D0002F500EE1C90E2E5CD8B00AD074EC39F054
:1012E0000009D8A405D060EC39F00009D8B4F0D7D3
:1012F000000E2F6E000E2E6E74EC39F00009D8A48B
:101300002FEF1CF060EC39F00009D8A42FEF1CF08F
:101310000ED0918C770EC4EC39F0770EC4EC39F016
:10132000919C770EC4EC39F0770EC4EC39F02F5055
:101330000EE1650E2E5CD8B00AD074EC39F00009CD
:10134000D8A405D060EC39F00009D8B4E2D7000E7B
:101350002F6E000E2E6E2F500EE1330E2E5CD8B085
:101360000AD074EC39F00009D8A405D060EC39F04B
:101370000009D8B4F0D7000E2F6E000E2E6E74EC5C
:1013800039F00009D8A42FEF1CF060EC39F0000907
:10139000D8A42FEF1CF00ED0918C770EC4EC39F04E
:1013A000770EC4EC39F0919C770EC4EC39F0770ECF
:1013B000C4EC39F02F500EE1650E2E5CD8B00AD087
:1013C00074EC39F00009D8A405D060EC39F00009BC
:1013D000D8B4E2D7000E2F6E000E2E6E2F500EE105
:1013E000650E2E5CD8B00AD074EC39F00009D8A490
:1013F00005D060EC39F00009D8B4F0D7000E2F6E9C
:10140000000E2E6E74EC39F00009D8A42FEF1CF0FA
:1014100060EC39F00009D8A42FEF1CF00ED0918CAD
:10142000770EC4EC39F0770EC4EC39F0919C770E4E
:10143000C4EC39F0770EC4EC39F02F500EE1C90E30
:101440002E5CD8B00AD074EC39F00009D8A405D0CD
:1014500060EC39F00009D8B4E2D7000E2F6E000E10
:101460002E6E2F500EE1650E2E5CD8B00AD074ECB3
:1014700039F00009D8A405D060EC39F00009D8B4DF
:10148000F0D7000E2F6E000E2E6E74EC39F00009AE
:10149000D8A42FEF1CF060EC39F00009D8A42FEF8E
:1014A0001CF00ED0918C470EC4EC39F0470EC4EC02
:1014B00039F0919C470EC4EC39F0470EC4EC39F07A
:1014C0002F500EE1C90E2E5CD8B00AD074EC39F062
:1014D0000009D8A405D060EC39F00009D8B4E2D7EF
:1014E000000E2F6E000E2E6E2F500EE1650E2E5C3C
:1014F000D8B00AD074EC39F00009D8A405D060EC5B
:1015000039F00009D8B4F0D7000E2F6E000E2E6E01
:1015100074EC39F00009D8A42FEF1CF060EC39F01E
:101520000009D8A42FEF1CF00ED0918C500EC4EC03
:1015300039F0500EC4EC39F0919C500EC4EC39F0E7
:10154000500EC4EC39F02F500EE1C90E2E5CD8B00D
:101550000AD074EC39F00009D8A405D060EC39F059
:101560000009D8B4E2D7000E2F6E000E2E6E2F5059
:101570000EE1650E2E5CD8B00AD074EC39F000098B
:10158000D8A405D060EC39F00009D8B4F0D7000E2B
:101590002F6E000E2E6E74EC39F00009D8A42FEFD8
:1015A0001CF060EC39F00009D8A42FEF1CF00ED02D
:1015B000918C590EC4EC39F0590EC4EC39F0919C61
:1015C000590EC4EC39F0590EC4EC39F02F500EE12D
:1015D000C90E2E5CD8B00AD074EC39F00009D8A43A
:1015E00005D060EC39F00009D8B4E2D7000E2F6EB8
:1015F000000E2E6E2F500EE1650E2E5CD8B00AD074
:1016000074EC39F00009D8A405D060EC39F0000979
:10161000D8B4F0D7000E2F6E000E2E6E74EC39F099
:101620000009D8A42FEF1CF060EC39F00009D8A411
:101630002FEF1CF00ED0918C6A0EC4EC39F06A0EBC
:10164000C4EC39F0919C6A0EC4EC39F06A0EC4EC1B
:1016500039F0910E2E5C010E2F58D8B00AD074ECE0
:1016600039F00009D8A405D060EC39F00009D8B4ED
:10167000E2D7000E2F6E000E2E6E2F500EE1650E7B
:101680002E5CD8B00AD074EC39F00009D8A405D08B
:1016900060EC39F00009D8B4F0D7000E2F6E000EC0
:1016A0002E6E74EC39F00009D8A42FEF1CF060EC1A
:1016B00039F00009D8A42FEF1CF001D0919C910EB5
:1016C0002E5C010E2F58D8B00AD074EC39F0000906
:1016D000D8A405D060EC39F00009D8B4EFD7000EDB
:1016E0002F6E000E2E6E74EC39F00009D8A42FEF87
:1016F0001CF060EC39F00009D8A42FEF1CF00ED0DC
:10170000918C6A0EC4EC39F06A0EC4EC39F0919CED
:101710006A0EC4EC39F06A0EC4EC39F02F500EE1B9
:10172000C90E2E5CD8B00AD074EC39F00009D8A4E8
:1017300005D060EC39F00009D8B4E2D7000E2F6E66
:10174000000E2E6E2F500EE1650E2E5CD8B00AD022
:1017500074EC39F00009D8A405D060EC39F0000928
:10176000D8B4F0D7000E2F6E000E2E6E74EC39F048
:101770000009D8A42FEF1CF060EC39F00009D8A4C0
:101780002FEF1CF00ED0918C430EC4EC39F0430EB9
:10179000C4EC39F0919C430EC4EC39F0430EC4EC18
:1017A00039F02F500EE1C90E2E5CD8B00AD074EC7F
:1017B00039F00009D8A405D060EC39F00009D8B49C
:1017C000E2D7000E2F6E000E2E6E2F500EE1650E2A
:1017D0002E5CD8B00AD074EC39F00009D8A405D03A
:1017E00060EC39F00009D8B4F0D7000E2F6E000E6F
:1017F0002E6E74EC39F00009D8A42FEF1CF060ECC9
:1018000039F00009D8A42FEF1CF00ED0918C470EB0
:10181000C4EC39F0470EC4EC39F0919C470EC4EC8F
:1018200039F0470EC4EC39F02F500EE1C90E2E5C92
:10183000D8B00AD074EC39F00009D8A405D060EC17
:1018400039F00009D8B4E2D7000E2F6E000E2E6ECC
:101850002F500EE1650E2E5CD8B00AD074EC39F032
:101860000009D8A405D060EC39F00009D8B4F0D74D
:10187000000E2F6E000E2E6E74EC39F00009D8A405
:101880002FEF1CF060EC39F00009D8A42FEF1CF00A
:101890000ED0918C500EC4EC39F0500EC4EC39F0DF
:1018A000919C500EC4EC39F0500EC4EC39F02F501E
:1018B0000EE1C90E2E5CD8B00AD074EC39F00009E4
:1018C000D8A405D060EC39F00009D8B4E2D7000EF6
:1018D0002F6E000E2E6E2F500EE1650E2E5CD8B0CE
:1018E0000AD074EC39F00009D8A405D060EC39F0C6
:1018F0000009D8B4F0D7000E2F6E000E2E6E74ECD7
:1019000039F00009D8A42FEF1CF060EC39F0000981
:10191000D8A42FEF1CF00ED0918C5F0EC4EC39F0E0
:101920005F0EC4EC39F0919C5F0EC4EC39F05F0E91
:10193000C4EC39F0910E2E5C010E2F58D8B00AD0AD
:1019400074EC39F00009D8A405D060EC39F0000936
:10195000D8B4E2D7000E2F6E000E2E6E2F500EE17F
:10196000650E2E5CD8B00AD074EC39F00009D8A40A
:1019700005D060EC39F00009D8B4F0D7000E2F6E16
:10198000000E2E6E74EC39F00009D8A42FEF1CF075
:1019900060EC39F00009D8A42FEF1CF001D0919C25
:1019A000910E2E5C010E2F58D8B00AD074EC39F08D
:1019B0000009D8A405D060EC39F00009D8B4EFD7FD
:1019C000000E2F6E000E2E6E74EC39F00009D8A4B4
:1019D0002FEF1CF060EC39F00009D8A42FEF1CF0B9
:1019E0000ED0918C3C0EC4EC39F03C0EC4EC39F0B6
:1019F000919C3C0EC4EC39F03C0EC4EC39F02F50F5
:101A00000EE1C90E2E5CD8B00AD074EC39F0000992
:101A1000D8A405D060EC39F00009D8B4E2D7000EA4
:101A20002F6E000E2E6E2F500EE1650E2E5CD8B07C
:101A30000AD074EC39F00009D8A405D060EC39F074
:101A40000009D8B4F0D7000E2F6E000E2E6E74EC85
:101A500039F00009D8A42FEF1CF060EC39F0000930
:101A6000D8A42FEF1CF00ED0918C3C0EC4EC39F0B2
:101A70003C0EC4EC39F0919C3C0EC4EC39F03C0EA9
:101A8000C4EC39F02F500EE1C90E2E5CD8B00AD04C
:101A900074EC39F00009D8A405D060EC39F00009E5
:101AA000D8B4E2D7000E2F6E000E2E6E2F500EE12E
:101AB000650E2E5CD8B00AD074EC39F00009D8A4B9
:101AC00005D060EC39F00009D8B4F0D7000E2F6EC5
:101AD000000E2E6E74EC39F00009D8A42FEF1CF024
:101AE00060EC39F00009D8A42FEF1CF00ED0918CD7
:101AF000430EC4EC39F0430EC4EC39F0919C430E14
:101B0000C4EC39F0430EC4EC39F02F500EE1C90E8D
:101B10002E5CD8B00AD074EC39F00009D8A405D0F6
:101B200060EC39F00009D8B4E2D7000E2F6E000E39
:101B30002E6E2F500EE1650E2E5CD8B00AD074ECDC
:101B400039F00009D8A405D060EC39F00009D8B408
:101B5000F0D7000E2F6E000E2E6E74EC39F00009D7
:101B6000D8A42FEF1CF060EC39F00009D8A42FEFB7
:101B70001CF00ED0918C500EC4EC39F0500EC4EC19
:101B800039F0919C500EC4EC39F0500EC4EC39F091
:101B90002F500EE1C90E2E5CD8B00AD074EC39F08B
:101BA0000009D8A405D060EC39F00009D8B4E2D718
:101BB000000E2F6E000E2E6E2F500EE1650E2E5C65
:101BC000D8B00AD074EC39F00009D8A405D060EC84
:101BD00039F00009D8B4F0D7000E2F6E000E2E6E2B
:101BE00074EC39F00009D8A42FEF1CF060EC39F048
:101BF0000009D8A42FEF1CF00ED0918C470EC4EC36
:101C000039F0470EC4EC39F0919C470EC4EC39F022
:101C1000470EC4EC39F0910E2E5C010E2F58D8B04F
:101C20000AD074EC39F00009D8A405D060EC39F082
:101C30000009D8B4E2D7000E2F6E000E2E6E2F5082
:101C40000EE1650E2E5CD8B00AD074EC39F00009B4
:101C5000D8A405D060EC39F00009D8B4F0D7000E54
:101C60002F6E000E2E6E74EC39F00009D8A42FEF01
:101C70001CF060EC39F00009D8A42FEF1CF001D063
:101C8000919C910E2E5C010E2F58D8B00AD074ECA6
:101C900039F00009D8A405D060EC39F00009D8B4B7
:101CA000EFD7000E2F6E000E2E6E74EC39F0000987
:101CB000D8A42FEF1CF060EC39F00009D8A42FEF66
:101CC0001CF00ED0918C770EC4EC39F0770EC4EC7A
:101CD00039F0919C770EC4EC39F0770EC4EC39F0F2
:101CE0002F500EE1C90E2E5CD8B00AD074EC39F03A
:101CF0000009D8A405D060EC39F00009D8B4E2D7C7
:101D0000000E2F6E000E2E6E2F500EE1650E2E5C13
:101D1000D8B00AD074EC39F00009D8A405D060EC32
:101D200039F00009D8B4F0D7000E2F6E000E2E6ED9
:101D300074EC39F00009D8A42FEF1CF060EC39F0F6
:101D40000009D8A42FEF1CF00ED0918C470EC4ECE4
:101D500039F0470EC4EC39F0919C470EC4EC39F0D1
:101D6000470EC4EC39F02F500EE1C90E2E5CD8B0EE
:101D70000AD074EC39F00009D8A405D060EC39F031
:101D80000009D8B4E2D7000E2F6E000E2E6E2F5031
:101D90000EE1650E2E5CD8B00AD074EC39F0000963
:101DA000D8A405D060EC39F00009D8B4F0D7000E03
:101DB0002F6E000E2E6E74EC39F00009D8A42FEFB0
:101DC0001CF060EC39F00009D8A42FEF1CF00ED005
:101DD000918C500EC4EC39F0500EC4EC39F0919C4B
:101DE000500EC4EC39F0500EC4EC39F02F500EE117
:101DF000C90E2E5CD8B00AD074EC39F00009D8A412
:101E000005D060EC39F00009D8B4E2D7000E2F6E8F
:101E1000000E2E6E2F500EE1650E2E5CD8B00AD04B
:101E200074EC39F00009D8A405D060EC39F0000951
:101E3000D8B4F0D7000E2F6E000E2E6E74EC39F071
:101E40000009D8A42FEF1CF060EC39F00009D8A4E9
:101E50002FEF1CF00ED0918C590EC4EC39F0590EB6
:101E6000C4EC39F0919C590EC4EC39F0590EC4EC15
:101E700039F02F500EE1C90E2E5CD8B00AD074ECA8
:101E800039F00009D8A405D060EC39F00009D8B4C5
:101E9000E2D7000E2F6E000E2E6E2F500EE1650E53
:101EA0002E5CD8B00AD074EC39F00009D8A405D063
:101EB00060EC39F00009D8B4F0D7000E2F6E000E98
:101EC0002E6E74EC39F00009D8A42FEF1CF060ECF2
:101ED00039F00009D8A42FEF1CF00ED0918C770EAA
:101EE000C4EC39F0770EC4EC39F0919C770EC4EC59
:101EF00039F0770EC4EC39F0910E2E5C010E2F589C
:101F0000D8B00AD074EC39F00009D8A405D060EC40
:101F100039F00009D8B4E2D7000E2F6E000E2E6EF5
:101F20002F500EE1650E2E5CD8B00AD074EC39F05B
:101F30000009D8A405D060EC39F00009D8B4F0D776
:101F4000000E2F6E000E2E6E74EC39F00009D8A42E
:101F50002FEF1CF060EC39F00009D8A42FEF1CF033
:101F600001D0919C910E2E5C010E2F58D8B00AD052
:101F700074EC39F00009D8A405D060EC39F0000900
:101F8000D8B4EFD7000E2F6E000E2E6E74EC39F021
:101F90000009D8A42FEF1CF060EC39F00009D8A498
:101FA0002FEF1CF00ED0918C770EC4EC39F0770E29
:101FB000C4EC39F0919C770EC4EC39F0770EC4EC88
:101FC00039F02F500EE1C90E2E5CD8B00AD074EC57
:101FD00039F00009D8A405D060EC39F00009D8B474
:101FE000E2D7000E2F6E000E2E6E2F500EE1650E02
:101FF0002E5CD8B00AD074EC39F00009D8A405D012
:1020000060EC39F00009D8B4F0D7000E2F6E000E46
:102010002E6E74EC39F00009D8A42FEF1CF060ECA0
:1020200039F00009D8A42FEF1CF00ED0918C470E88
:10203000C4EC39F0470EC4EC39F0919C470EC4EC67
:1020400039F0470EC4EC39F02F500EE1C90E2E5C6A
:10205000D8B00AD074EC39F00009D8A405D060ECEF
:1020600039F00009D8B4E2D7000E2F6E000E2E6EA4
:102070002F500EE1650E2E5CD8B00AD074EC39F00A
:102080000009D8A405D060EC39F00009D8B4F0D725
:10209000000E2F6E000E2E6E74EC39F00009D8A4DD
:1020A0002FEF1CF060EC39F00009D8A42FEF1CF0E2
:1020B0000ED0918C500EC4EC39F0500EC4EC39F0B7
:1020C000919C500EC4EC39F0500EC4EC39F02F50F6
:1020D0000EE1C90E2E5CD8B00AD074EC39F00009BC
:1020E000D8A405D060EC39F00009D8B4E2D7000ECE
:1020F0002F6E000E2E6E2F500EE1650E2E5CD8B0A6
:102100000AD074EC39F00009D8A405D060EC39F09D
:102110000009D8B4F0D7000E2F6E000E2E6E74ECAE
:1021200039F00009D8A42FEF1CF060EC39F0000959
:10213000D8A42FEF1CF00ED0918C590EC4EC39F0BE
:10214000590EC4EC39F0919C590EC4EC39F0590E7B
:10215000C4EC39F02F500EE1C90E2E5CD8B00AD075
:1021600074EC39F00009D8A405D060EC39F000090E
:10217000D8B4E2D7000E2F6E000E2E6E2F500EE157
:10218000650E2E5CD8B00AD074EC39F00009D8A4E2
:1021900005D060EC39F00009D8B4F0D7000E2F6EEE
:1021A000000E2E6E74EC39F00009D8A42FEF1CF04D
:1021B00060EC39F00009D8A42FEF1CF00ED0918C00
:1021C0006A0EC4EC39F06A0EC4EC39F0919C6A0EC8
:1021D000C4EC39F06A0EC4EC39F0910E2E5C010E9D
:1021E0002F58D8B00AD074EC39F00009D8A405D023
:1021F00060EC39F00009D8B4E2D7000E2F6E000E63
:102200002E6E2F500EE1650E2E5CD8B00AD074EC05
:1022100039F00009D8A405D060EC39F00009D8B431
:10222000F0D7000E2F6E000E2E6E74EC39F0000900
:10223000D8A42FEF1CF060EC39F00009D8A42FEFE0
:102240001CF001D0919C910E2E5C010E2F58D8B03D
:102250000AD074EC39F00009D8A405D060EC39F04C
:102260000009D8B4EFD7000E2F6E000E2E6E74EC5E
:1022700039F00009D8A42FEF1CF060EC39F0000908
:10228000D8A42FEF1CF00ED0918C6A0EC4EC39F05C
:102290006A0EC4EC39F0919C6A0EC4EC39F06A0EF7
:1022A000C4EC39F02F500EE1C90E2E5CD8B00AD024
:1022B00074EC39F00009D8A405D060EC39F00009BD
:1022C000D8B4E2D7000E2F6E000E2E6E2F500EE106
:1022D000650E2E5CD8B00AD074EC39F00009D8A491
:1022E00005D060EC39F00009D8B4F0D7000E2F6E9D
:1022F000000E2E6E74EC39F00009D8A42FEF1CF0FC
:1023000060EC39F00009D8A42FEF1CF00ED0918CAE
:102310006A0EC4EC39F06A0EC4EC39F0919C6A0E76
:10232000C4EC39F06A0EC4EC39F02F500EE1C90E3E
:102330002E5CD8B00AD074EC39F00009D8A405D0CE
:1023400060EC39F00009D8B4E2D7000E2F6E000E11
:102350002E6E2F500EE1650E2E5CD8B00AD074ECB4
:1023600039F00009D8A405D060EC39F00009D8B4E0
:10237000F0D7000E2F6E000E2E6E74EC39F00009AF
:10238000D8A42FEF1CF060EC39F00009D8A42FEF8F
:102390001CF00ED0918C430EC4EC39F0430EC4EC0B
:1023A00039F0919C430EC4EC39F0430EC4EC39F083
:1023B0002F500EE1C90E2E5CD8B00AD074EC39F063
:1023C0000009D8A405D060EC39F00009D8B4E2D7F0
:1023D000000E2F6E000E2E6E2F500EE1650E2E5C3D
:1023E000D8B00AD074EC39F00009D8A405D060EC5C
:1023F00039F00009D8B4F0D7000E2F6E000E2E6E03
:1024000074EC39F00009D8A42FEF1CF060EC39F01F
:102410000009D8A42FEF1CF00ED0918C470EC4EC0D
:1024200039F0470EC4EC39F0919C470EC4EC39F0FA
:10243000470EC4EC39F02F500EE1C90E2E5CD8B017
:102440000AD074EC39F00009D8A405D060EC39F05A
:102450000009D8B4E2D7000E2F6E000E2E6E2F505A
:102460000EE1650E2E5CD8B00AD074EC39F000098C
:10247000D8A405D060EC39F00009D8B4F0D7000E2C
:102480002F6E000E2E6E74EC39F00009D8A42FEFD9
:102490001CF060EC39F00009D8A42FEF1CF00ED02E
:1024A000918C500EC4EC39F0500EC4EC39F0919C74
:1024B000500EC4EC39F0500EC4EC39F02F500EE140
:1024C000C90E2E5CD8B00AD074EC39F00009D8A43B
:1024D00005D060EC39F00009D8B4E2D7000E2F6EB9
:1024E000000E2E6E2F500EE1650E2E5CD8B00AD075
:1024F00074EC39F00009D8A405D060EC39F000097B
:10250000D8B4F0D7000E2F6E000E2E6E74EC39F09A
:102510000009D8A42FEF1CF060EC39F00009D8A412
:102520002FEF1CF00ED0918C3C0EC4EC39F03C0E19
:10253000C4EC39F0919C3C0EC4EC39F03C0EC4EC78
:1025400039F02F500EE1C90E2E5CD8B00AD074ECD1
:1025500039F00009D8A405D060EC39F00009D8B4EE
:10256000E2D7000E2F6E000E2E6E2F500EE1650E7C
:102570002E5CD8B00AD074EC39F00009D8A405D08C
:1025800060EC39F00009D8B4F0D7000E2F6E000EC1
:102590002E6E74EC39F00009D8A42FEF1CF060EC1B
:1025A00039F00009D8A42FEF1CF00ED0918C3C0E0E
:1025B000C4EC39F03C0EC4EC39F0919C3C0EC4ECF8
:1025C00039F03C0EC4EC39F02F500EE1C90E2E5CF0
:1025D000D8B00AD074EC39F00009D8A405D060EC6A
:1025E00039F00009D8B4E2D7000E2F6E000E2E6E1F
:1025F0002F500EE1650E2E5CD8B00AD074EC39F085
:102600000009D8A405D060EC39F00009D8B4F0D79F
:10261000000E2F6E000E2E6E74EC39F00009D8A457
:102620002FEF1CF060EC39F00009D8A42FEF1CF05C
:102630000ED0918C3C0EC4EC39F03C0EC4EC39F059
:10264000919C3C0EC4EC39F03C0EC4EC39F02F5098
:102650000EE1C90E2E5CD8B00AD074EC39F0000936
:10266000D8A405D060EC39F00009D8B4E2D7000E48
:102670002F6E000E2E6E2F500EE1650E2E5CD8B020
:102680000AD074EC39F00009D8A405D060EC39F018
:102690000009D8B4F0D7000E2F6E000E2E6E74EC29
:1026A00039F00009D8A42FEF1CF060EC39F00009D4
:1026B000D8A42FEF1CF00ED0918C3C0EC4EC39F056
:1026C0003C0EC4EC39F0919C3C0EC4EC39F03C0E4D
:1026D000C4EC39F02F500EE1650E2E5CD8B00AD054
:1026E00074EC39F00009D8A405D060EC39F0000989
:1026F000D8B4E2D7000E2F6E000E2E6E2F500EE1D2
:10270000330E2E5CD8B00AD074EC39F00009D8A48E
:1027100005D060EC39F00009D8B4F0D7000E2F6E68
:10272000000E2E6E74EC39F00009D8A42FEF1CF0C7
:1027300060EC39F00009D8A42FEF1CF00ED0918C7A
:102740003C0EC4EC39F03C0EC4EC39F0919C3C0ECC
:10275000C4EC39F03C0EC4EC39F02F500EE1650E9C
:102760002E5CD8B00AD074EC39F00009D8A405D09A
:1027700060EC39F00009D8B4E2D7000E2F6E000EDD
:102780002E6E2F500EE1650E2E5CD8B00AD074EC80
:1027900039F00009D8A405D060EC39F00009D8B4AC
:1027A000F0D7000E2F6E000E2E6E74EC39F000097B
:1027B000D8A42FEF1CF060EC39F00009D8A42FEF5B
:1027C0001CF00ED0918C350EC4EC39F0350EC4ECF3
:1027D00039F0919C350EC4EC39F0350EC4EC39F06B
:1027E0002F500EE1C90E2E5CD8B00AD074EC39F02F
:1027F0000009D8A405D060EC39F00009D8B4E2D7BC
:10280000000E2F6E000E2E6E2F500EE1650E2E5C08
:10281000D8B00AD074EC39F00009D8A405D060EC27
:1028200039F00009D8B4F0D7000E2F6E000E2E6ECE
:1028300074EC39F00009D8A42FEF1CF060EC39F0EB
:102840000009D8A42FEF1CF00ED0918C3C0EC4ECE4
:1028500039F03C0EC4EC39F0919C3C0EC4EC39F0DC
:102860003C0EC4EC39F02F500EE1C90E2E5CD8B0EE
:102870000AD074EC39F00009D8A405D060EC39F026
:102880000009D8B4E2D7000E2F6E000E2E6E2F5026
:102890000EE1650E2E5CD8B00AD074EC39F0000958
:1028A000D8A405D060EC39F00009D8B4F0D7000EF8
:1028B0002F6E000E2E6E74EC39F00009D8A42FEFA5
:1028C0001CF060EC39F00009D8A42FEF1CF00ED0FA
:1028D000918C430EC4EC39F0430EC4EC39F0919C5A
:1028E000430EC4EC39F0430EC4EC39F02F500EE126
:1028F000C90E2E5CD8B00AD074EC39F00009D8A407
:1029000005D060EC39F00009D8B4E2D7000E2F6E84
:10291000000E2E6E2F500EE1650E2E5CD8B00AD040
:1029200074EC39F00009D8A405D060EC39F0000946
:10293000D8B4F0D7000E2F6E000E2E6E74EC39F066
:102940000009D8A42FEF1CF060EC39F00009D8A4DE
:102950002FEF1CF00ED0918C500EC4EC39F0500EBD
:10296000C4EC39F0919C500EC4EC39F0500EC4EC1C
:1029700039F02F500EE1C90E2E5CD8B00AD074EC9D
:1029800039F00009D8A405D060EC39F00009D8B4BA
:10299000E2D7000E2F6E000E2E6E2F500EE1650E48
:1029A0002E5CD8B00AD074EC39F00009D8A405D058
:1029B00060EC39F00009D8B4F0D7000E2F6E000E8D
:1029C0002E6E74EC39F00009D8A42FEF1CF060ECE7
:1029D00039F00009D8A42FEF1CF00ED0918C590EBD
:1029E000C4EC39F0590EC4EC39F0919C590EC4EC8A
:1029F00039F0590EC4EC39F0910E2E5C010E2F58AF
:102A0000D8B00AD074EC39F00009D8A405D060EC35
:102A100039F00009D8B4E2D7000E2F6E000E2E6EEA
:102A20002F500EE1C90E2E5CD8B00AD074EC39F0EC
:102A30000009D8A405D060EC39F00009D8B4F0D76B
:102A4000000E2F6E000E2E6E74EC39F00009D8A423
:102A50002FEF1CF060EC39F00009D8A42FEF1CF028
:102A60000ED0918C3C0EC4EC39F03C0EC4EC39F025
:102A7000919C3C0EC4EC39F03C0EC4EC39F0910E44
:102A80002E5C010E2F58D8B00AD074EC39F0000932
:102A9000D8A405D060EC39F00009D8B4E2D7000E14
:102AA0002F6E000E2E6E2F500EE1650E2E5CD8B0EC
:102AB0000AD074EC39F00009D8A405D060EC39F0E4
:102AC0000009D8B4F0D7000E2F6E000E2E6E74ECF5
:102AD00039F00009D8A42FEF1CF060EC39F00009A0
:102AE000D8A42FEF1CF00ED0918C470EC4EC39F017
:102AF000470EC4EC39F0919C470EC4EC39F0470EF8
:102B0000C4EC39F02F500EE1C90E2E5CD8B00AD0BB
:102B100074EC39F00009D8A405D060EC39F0000954
:102B2000D8B4E2D7000E2F6E000E2E6E2F500EE19D
:102B3000650E2E5CD8B00AD074EC39F00009D8A428
:102B400005D060EC39F00009D8B4F0D7000E2F6E34
:102B5000000E2E6E74EC39F00009D8A42FEF1CF093
:102B600060EC39F00009D8A42FEF1CF00ED0918C46
:102B7000470EC4EC39F0470EC4EC39F0919C470E77
:102B8000C4EC39F0470EC4EC39F02F500EE1C90EF9
:102B90002E5CD8B00AD074EC39F00009D8A405D066
:102BA00060EC39F00009D8B4E2D7000E2F6E000EA9
:102BB0002E6E2F500EE1650E2E5CD8B00AD074EC4C
:102BC00039F00009D8A405D060EC39F00009D8B478
:102BD000F0D7000E2F6E000E2E6E74EC39F0000947
:102BE000D8A42FEF1CF060EC39F00009D8A42FEF27
:102BF0001CF00ED0918C470EC4EC39F0470EC4EC9B
:102C000039F0919C470EC4EC39F0470EC4EC39F012
:102C1000910E2E5C010E2F58D8B00AD074EC39F00A
:102C20000009D8A405D060EC39F00009D8B4E2D787
:102C3000000E2F6E000E2E6E2F500EE1650E2E5CD4
:102C4000D8B00AD074EC39F00009D8A405D060ECF3
:102C500039F00009D8B4F0D7000E2F6E000E2E6E9A
:102C600074EC39F00009D8A42FEF1CF060EC39F0B7
:102C70000009D8A42FEF1CF00ED0918C470EC4ECA5
:102C800039F0470EC4EC39F0919C470EC4EC39F092
:102C9000470EC4EC39F02F500EE1C90E2E5CD8B0AF
:102CA0000AD074EC39F00009D8A405D060EC39F0F2
:102CB0000009D8B4E2D7000E2F6E000E2E6E2F50F2
:102CC0000EE1650E2E5CD8B00AD074EC39F0000924
:102CD000D8A405D060EC39F00009D8B4F0D7000EC4
:102CE0002F6E000E2E6E74EC39F00009D8A42FEF71
:102CF0001CF060EC39F00009D8A42FEF1CF00ED0C6
:102D0000918C470EC4EC39F0470EC4EC39F0919C1D
:102D1000470EC4EC39F0470EC4EC39F02F500EE1E9
:102D2000C90E2E5CD8B00AD074EC39F00009D8A4D2
:102D300005D060EC39F00009D8B4E2D7000E2F6E50
:102D4000000E2E6E2F500EE1650E2E5CD8B00AD00C
:102D500074EC39F00009D8A405D060EC39F0000912
:102D6000D8B4F0D7000E2F6E000E2E6E74EC39F032
:102D70000009D8A42FEF1CF060EC39F00009D8A4AA
:102D80002FEF1CF00ED0918C470EC4EC39F0470E9B
:102D9000C4EC39F0919C470EC4EC39F0470EC4ECFA
:102DA00039F0910E2E5C010E2F58D8B00AD074EC79
:102DB00039F00009D8A405D060EC39F00009D8B486
:102DC000E2D7000E2F6E000E2E6E2F500EE1650E14
:102DD0002E5CD8B00AD074EC39F00009D8A405D024
:102DE00060EC39F00009D8B4F0D7000E2F6E000E59
:102DF0002E6E74EC39F00009D8A42FEF1CF060ECB3
:102E000039F00009D8A42FEF1CF00ED0918C470E9A
:102E1000C4EC39F0470EC4EC39F0919C470EC4EC79
:102E200039F0470EC4EC39F02F500EE1C90E2E5C7C
:102E3000D8B00AD074EC39F00009D8A405D060EC01
:102E400039F00009D8B4E2D7000E2F6E000E2E6EB6
:102E50002F500EE1650E2E5CD8B00AD074EC39F01C
:102E60000009D8A405D060EC39F00009D8B4F0D737
:102E7000000E2F6E000E2E6E74EC39F00009D8A4EF
:102E80002FEF1CF060EC39F00009D8A42FEF1CF0F4
:102E90000ED0918C3C0EC4EC39F03C0EC4EC39F0F1
:102EA000919C3C0EC4EC39F03C0EC4EC39F02F5030
:102EB0000EE1C90E2E5CD8B00AD074EC39F00009CE
:102EC000D8A405D060EC39F00009D8B4E2D7000EE0
:102ED0002F6E000E2E6E2F500EE1330E2E5CD8B0EA
:102EE0000AD074EC39F00009D8A405D060EC39F0B0
:102EF0000009D8B4F0D7000E2F6E000E2E6E74ECC1
:102F000039F00009D8A42FEF1CF060EC39F000096B
:102F1000D8A42FEF1CF00ED0918C590EC4EC39F0D0
:102F2000590EC4EC39F0919C590EC4EC39F0590E8D
:102F3000C4EC39F02F500EE1C90E2E5CD8B00AD087
:102F400074EC39F00009D8A405D060EC39F0000920
:102F5000D8B4E2D7000E2F6E000E2E6E2F500EE169
:102F6000650E2E5CD8B00AD074EC39F00009D8A4F4
:102F700005D060EC39F00009D8B4F0D7000E2F6E00
:102F8000000E2E6E74EC39F00009D8A42FEF1CF05F
:102F900060EC39F00009D8A42FEF1CF00ED0918C12
:102FA000500EC4EC39F0500EC4EC39F0919C500E28
:102FB000C4EC39F0500EC4EC39F02F500EE1C90EBC
:102FC0002E5CD8B00AD074EC39F00009D8A405D032
:102FD00060EC39F00009D8B4E2D7000E2F6E000E75
:102FE0002E6E2F500EE1650E2E5CD8B00AD074EC18
:102FF00039F00009D8A405D060EC39F00009D8B444
:10300000F0D7000E2F6E000E2E6E74EC39F0000912
:10301000D8A42FEF1CF060EC39F00009D8A42FEFF2
:103020001CF00ED0918C470EC4EC39F0470EC4EC66
:1030300039F0919C470EC4EC39F0470EC4EC39F0DE
:10304000210E2E5C030E2F58D8B00AD074EC39F044
:103050000009D8A405D060EC39F00009D8B4E2D753
:10306000000E2F6E000E2E6E2F500EE1650E2E5CA0
:10307000D8B00AD074EC39F00009D8A405D060ECBF
:1030800039F00009D8B4F0D7000E2F6E000E2E6E66
:1030900074EC39F00009D8A4E2D360EC39F00009EF
:1030A000D8A4DDD30ED0918C430EC4EC39F0430E7E
:1030B000C4EC39F0919C430EC4EC39F0430EC4ECDF
:1030C00039F02F500EE1C90E2E5CD8B00AD074EC46
:1030D00039F00009D8A405D060EC39F00009D8B463
:1030E000E2D7000E2F6E000E2E6E2F500EE1650EF1
:1030F0002E5CD8B00AD074EC39F00009D8A405D001
:1031000060EC39F00009D8B4F0D7000E2F6E000E35
:103110002E6E74EC39F00009D8A4A1D360EC39F01C
:103120000009D8A49CD30ED0918C430EC4EC39F086
:10313000430EC4EC39F0919C430EC4EC39F0430EBD
:10314000C4EC39F02F500EE1C90E2E5CD8B00AD075
:1031500074EC39F00009D8A405D060EC39F000090E
:10316000D8B4E2D7000E2F6E000E2E6E2F500EE157
:10317000650E2E5CD8B00AD074EC39F00009D8A4E2
:1031800005D060EC39F00009D8B4F0D7000E2F6EEE
:10319000000E2E6E74EC39F00009D8A460D360ECF8
:1031A00039F00009D8A45BD30ED0918C430EC4EC47
:1031B00039F0430EC4EC39F0919C430EC4EC39F065
:1031C000430EC4EC39F02F500EE1C90E2E5CD8B07E
:1031D0000AD074EC39F00009D8A405D060EC39F0BD
:1031E0000009D8B4E2D7000E2F6E000E2E6E2F50BD
:1031F0000EE1650E2E5CD8B00AD074EC39F00009EF
:10320000D8A405D060EC39F00009D8B4F0D7000E8E
:103210002F6E000E2E6E74EC39F00009D8A41FD367
:1032200060EC39F00009D8A41AD30ED0918C430E6B
:10323000C4EC39F0430EC4EC39F0919C430EC4EC5D
:1032400039F0430EC4EC39F02F500EE1C90E2E5C5C
:10325000D8B00AD074EC39F00009D8A405D060ECDD
:1032600039F00009D8B4E2D7000E2F6E000E2E6E92
:103270002F500EE1650E2E5CD8B00AD074EC39F0F8
:103280000009D8A405D060EC39F00009D8B4F0D713
:10329000000E2F6E000E2E6E74EC39F00009D8A4CB
:1032A000DED260EC39F00009D8A4D9D20ED0918CCE
:1032B000470EC4EC39F0470EC4EC39F0919C470E30
:1032C000C4EC39F0470EC4EC39F02F500EE1C90EB2
:1032D0002E5CD8B00AD074EC39F00009D8A405D01F
:1032E00060EC39F00009D8B4E2D7000E2F6E000E62
:1032F0002E6E2F500EE1650E2E5CD8B00AD074EC05
:1033000039F00009D8A405D060EC39F00009D8B430
:10331000F0D7000E2F6E000E2E6E74EC39F00009FF
:10332000D8A49DD260EC39F00009D8A498D20ED070
:10333000918C470EC4EC39F0470EC4EC39F0919CE7
:10334000470EC4EC39F0470EC4EC39F02F500EE1B3
:10335000C90E2E5CD8B00AD074EC39F00009D8A49C
:1033600005D060EC39F00009D8B4E2D7000E2F6E1A
:10337000000E2E6E2F500EE1650E2E5CD8B00AD0D6
:1033800074EC39F00009D8A405D060EC39F00009DC
:10339000D8B4F0D7000E2F6E000E2E6E74EC39F0FC
:1033A0000009D8A45CD260EC39F00009D8A457D247
:1033B0000ED0918C470EC4EC39F0470EC4EC39F0B6
:1033C000919C470EC4EC39F0470EC4EC39F02F50F5
:1033D0000EE1C90E2E5CD8B00AD074EC39F00009A9
:1033E000D8A405D060EC39F00009D8B4E2D7000EBB
:1033F0002F6E000E2E6E2F500EE1650E2E5CD8B093
:103400000AD074EC39F00009D8A405D060EC39F08A
:103410000009D8B4F0D7000E2F6E000E2E6E74EC9B
:1034200039F00009D8A41BD260EC39F00009D8A407
:1034300016D20ED0918C470EC4EC39F0470EC4EC76
:1034400039F0919C470EC4EC39F0470EC4EC39F0CA
:103450002F500EE1650E2E5CD8B00AD074EC39F016
:103460000009D8A405D060EC39F00009D8B4E2D73F
:10347000000E2F6E000E2E6E2F500EE1330E2E5CBE
:10348000D8B00AD074EC39F00009D8A405D060ECAB
:1034900039F00009D8B4F0D7000E2F6E000E2E6E52
:1034A00074EC39F00009D8A4DAD160EC39F00009E5
:1034B000D8A4D5D10ED0918C470EC4EC39F0470E6C
:1034C000C4EC39F0919C470EC4EC39F0470EC4ECC3
:1034D00039F02F500EE1650E2E5CD8B00AD074EC96
:1034E00039F00009D8A405D060EC39F00009D8B44F
:1034F000E2D7000E2F6E000E2E6E2F500EE1650EDD
:103500002E5CD8B00AD074EC39F00009D8A405D0EC
:1035100060EC39F00009D8B4F0D7000E2F6E000E21
:103520002E6E74EC39F00009D8A499D160EC39F012
:103530000009D8A494D10ED0918C470EC4EC39F078
:10354000470EC4EC39F0919C470EC4EC39F0470E9D
:10355000C4EC39F02F500EE1C90E2E5CD8B00AD061
:1035600074EC39F00009D8A405D060EC39F00009FA
:10357000D8B4E2D7000E2F6E000E2E6E2F500EE143
:10358000650E2E5CD8B00AD074EC39F00009D8A4CE
:1035900005D060EC39F00009D8B4F0D7000E2F6EDA
:1035A000000E2E6E74EC39F00009D8A458D160ECEE
:1035B00039F00009D8A453D10ED0918C500EC4EC30
:1035C00039F0500EC4EC39F0919C500EC4EC39F037
:1035D000500EC4EC39F02F500EE1C90E2E5CD8B05D
:1035E0000AD074EC39F00009D8A405D060EC39F0A9
:1035F0000009D8B4E2D7000E2F6E000E2E6E2F50A9
:103600000EE1650E2E5CD8B00AD074EC39F00009DA
:10361000D8A405D060EC39F00009D8B4F0D7000E7A
:103620002F6E000E2E6E74EC39F00009D8A417D15D
:1036300060EC39F00009D8A412D10ED0918C500E54
:10364000C4EC39F0500EC4EC39F0919C500EC4EC2F
:1036500039F0500EC4EC39F02F500EE1C90E2E5C3B
:10366000D8B00AD074EC39F00009D8A405D060ECC9
:1036700039F00009D8B4E2D7000E2F6E000E2E6E7E
:103680002F500EE1650E2E5CD8B00AD074EC39F0E4
:103690000009D8A405D060EC39F00009D8B4F0D7FF
:1036A000000E2F6E000E2E6E74EC39F00009D8A4B7
:1036B000D6D060EC39F00009D8A4D1D00ED0918CCE
:1036C000470EC4EC39F0470EC4EC39F0919C470E1C
:1036D000C4EC39F0470EC4EC39F02F500EE1C90E9E
:1036E0002E5CD8B00AD074EC39F00009D8A405D00B
:1036F00060EC39F00009D8B4E2D7000E2F6E000E4E
:103700002E6E2F500EE1650E2E5CD8B00AD074ECF0
:1037100039F00009D8A405D060EC39F00009D8B41C
:10372000F0D7000E2F6E000E2E6E74EC39F00009EB
:10373000D8A495D060EC39F00009D8A490D00ED070
:10374000918C500EC4EC39F0500EC4EC39F0919CC1
:10375000500EC4EC39F0500EC4EC39F0910E2E5CD2
:10376000010E2F58D8B00AD074EC39F00009D8A453
:1037700005D060EC39F00009D8B4E2D7000E2F6E06
:10378000000E2E6E2F500EE1650E2E5CD8B00AD0C2
:1037900074EC39F00009D8A405D060EC39F00009C8
:1037A000D8B4F0D7000E2F6E000E2E6E74EC39F0E8
:1037B0000009D8A454D060EC39F00009D8A44FD047
:1037C0000ED0918C3C0EC4EC39F03C0EC4EC39F0B8
:1037D000919C3C0EC4EC39F03C0EC4EC39F0910ED7
:1037E0002E5C010E2F58D8B00AD074EC39F00009C5
:1037F000D8A405D060EC39F00009D8B4E2D7000EA7
:103800002F6E000E2E6E2F500EE1650E2E5CD8B07E
:103810000AD074EC39F00009D8A405D060EC39F076
:103820000009D8B4F0D7000E2F6E000E2E6E74EC87
:1038300039F00009D8A413D060EC39F00009D8A4FD
:103840000ED0640E88EC39F060EC39F00009D8A491
:1038500006D074EC39F00009D8B435EF08F0000E4A
:10386000306E1200010EF66E100EF76E000EF86E3E
:103870000800F5CF34F0360EF66E100EF76E000E1F
:10388000F86E0800F5CF33F04C6868EF2CF0000EAE
:103890002F6E000E2E6E0ED0918C540EC4EC39F0AB
:1038A000540EC4EC39F0919C540EC4EC39F0540E13
:1038B000C4EC39F02F500EE1C90E2E5CD8B00AD0FE
:1038C00074EC39F00009D8A405D060EC39F0000997
:1038D000D8B4E2D7000E2F6E000E2E6E2F500EE1E0
:1038E000650E2E5CD8B00AD074EC39F00009D8A46B
:1038F00005D060EC39F00009D8B4F0D7000E2F6E77
:10390000000E2E6E74EC39F00009D8A473EF2CF081
:1039100060EC39F00009D8A473EF2CF00ED0918C34
:10392000540EC4EC39F0540EC4EC39F0919C540E92
:10393000C4EC39F0540EC4EC39F02F500EE1C90E2E
:103940002E5CD8B00AD074EC39F00009D8A405D0A8
:1039500060EC39F00009D8B4E2D7000E2F6E000EEB
:103960002E6E2F500EE1650E2E5CD8B00AD074EC8E
:1039700039F00009D8A405D060EC39F00009D8B4BA
:10398000F0D7000E2F6E000E2E6E74EC39F0000989
:10399000D8A473EF2CF060EC39F00009D8A473EFD1
:1039A0002CF00ED0918C500EC4EC39F0500EC4ECBB
:1039B00039F0919C500EC4EC39F0500EC4EC39F043
:1039C0002F500EE1C90E2E5CD8B00AD074EC39F03D
:1039D0000009D8A405D060EC39F00009D8B4E2D7CA
:1039E000000E2F6E000E2E6E2F500EE1650E2E5C17
:1039F000D8B00AD074EC39F00009D8A405D060EC36
:103A000039F00009D8B4F0D7000E2F6E000E2E6EDC
:103A100074EC39F00009D8A473EF2CF060EC39F0A5
:103A20000009D8A473EF2CF00ED0918C470EC4EC93
:103A300039F0470EC4EC39F0919C470EC4EC39F0D4
:103A4000470EC4EC39F02F500EE1C90E2E5CD8B0F1
:103A50000AD074EC39F00009D8A405D060EC39F034
:103A60000009D8B4E2D7000E2F6E000E2E6E2F5034
:103A70000EE1650E2E5CD8B00AD074EC39F0000966
:103A8000D8A405D060EC39F00009D8B4F0D7000E06
:103A90002F6E000E2E6E74EC39F00009D8A473EF6F
:103AA0002CF060EC39F00009D8A473EF2CF00ED0A4
:103AB000918C470EC4EC39F0470EC4EC39F0919C60
:103AC000470EC4EC39F0470EC4EC39F02F500EE12C
:103AD000C90E2E5CD8B00AD074EC39F00009D8A415
:103AE00005D060EC39F00009D8B4E2D7000E2F6E93
:103AF000000E2E6E2F500EE1650E2E5CD8B00AD04F
:103B000074EC39F00009D8A405D060EC39F0000954
:103B1000D8B4F0D7000E2F6E000E2E6E74EC39F074
:103B20000009D8A473EF2CF060EC39F00009D8A498
:103B300073EF2CF00ED0918C500EC4EC39F0500E77
:103B4000C4EC39F0919C500EC4EC39F0500EC4EC2A
:103B500039F02F500EE1C90E2E5CD8B00AD074ECAB
:103B600039F00009D8A405D060EC39F00009D8B4C8
:103B7000E2D7000E2F6E000E2E6E2F500EE1650E56
:103B80002E5CD8B00AD074EC39F00009D8A405D066
:103B900060EC39F00009D8B4F0D7000E2F6E000E9B
:103BA0002E6E74EC39F00009D8A473EF2CF060ECA1
:103BB00039F00009D8A473EF2CF00ED0918C540E7C
:103BC000C4EC39F0540EC4EC39F0919C540EC4ECA2
:103BD00039F0540EC4EC39F02F500EE1C90E2E5CB2
:103BE000D8B00AD074EC39F00009D8A405D060EC44
:103BF00039F00009D8B4E2D7000E2F6E000E2E6EF9
:103C00002F500EE1650E2E5CD8B00AD074EC39F05E
:103C10000009D8A405D060EC39F00009D8B4F0D779
:103C2000000E2F6E000E2E6E74EC39F00009D8A431
:103C300073EF2CF060EC39F00009D8A473EF2CF08E
:103C40000ED0918C5F0EC4EC39F05F0EC4EC39F0ED
:103C5000919C5F0EC4EC39F05F0EC4EC39F02F502C
:103C60000EE1C90E2E5CD8B00AD074EC39F0000910
:103C7000D8A405D060EC39F00009D8B4E2D7000E22
:103C80002F6E000E2E6E2F500EE1650E2E5CD8B0FA
:103C90000AD074EC39F00009D8A405D060EC39F0F2
:103CA0000009D8B4F0D7000E2F6E000E2E6E74EC03
:103CB00039F00009D8A473EF2CF060EC39F000095A
:103CC000D8A473EF2CF00ED0918C6A0EC4EC39F0AE
:103CD0006A0EC4EC39F0919C6A0EC4EC39F06A0E9D
:103CE000C4EC39F02F500EE1C90E2E5CD8B00AD0CA
:103CF00074EC39F00009D8A405D060EC39F0000963
:103D0000D8B4E2D7000E2F6E000E2E6E2F500EE1AB
:103D1000650E2E5CD8B00AD074EC39F00009D8A436
:103D200005D060EC39F00009D8B4F0D7000E2F6E42
:103D3000000E2E6E74EC39F00009D8A473EF2CF04D
:103D400060EC39F00009D8A473EF2CF00ED0918C00
:103D50006A0EC4EC39F06A0EC4EC39F0919C6A0E1C
:103D6000C4EC39F06A0EC4EC39F02F500EE1C90EE4
:103D70002E5CD8B00AD074EC39F00009D8A405D074
:103D800060EC39F00009D8B4E2D7000E2F6E000EB7
:103D90002E6E2F500EE1650E2E5CD8B00AD074EC5A
:103DA00039F00009D8A405D060EC39F00009D8B486
:103DB000F0D7000E2F6E000E2E6E74EC39F0000955
:103DC000D8A473EF2CF060EC39F00009D8A473EF9D
:103DD0002CF00ED0918C5F0EC4EC39F05F0EC4EC69
:103DE00039F0919C5F0EC4EC39F05F0EC4EC39F0F1
:103DF0002F500EE1C90E2E5CD8B00AD074EC39F009
:103E00000009D8A405D060EC39F00009D8B4E2D795
:103E1000000E2F6E000E2E6E2F500EE1650E2E5CE2
:103E2000D8B00AD074EC39F00009D8A405D060EC01
:103E300039F00009D8B4F0D7000E2F6E000E2E6EA8
:103E400074EC39F00009D8A473EF2CF060EC39F071
:103E50000009D8A473EF2CF00ED0918C540EC4EC52
:103E600039F0540EC4EC39F0919C540EC4EC39F086
:103E7000540EC4EC39F02F500EE1C90E2E5CD8B0B0
:103E80000AD074EC39F00009D8A405D060EC39F000
:103E90000009D8B4E2D7000E2F6E000E2E6E2F5000
:103EA0000EE1650E2E5CD8B00AD074EC39F0000932
:103EB000D8A405D060EC39F00009D8B4F0D7000ED2
:103EC0002F6E000E2E6E74EC39F00009D8A473EF3B
:103ED0002CF060EC39F00009D8A473EF2CF00ED070
:103EE000918C540EC4EC39F0540EC4EC39F0919C12
:103EF000540EC4EC39F0540EC4EC39F02F500EE1DE
:103F0000C90E2E5CD8B00AD074EC39F00009D8A4E0
:103F100005D060EC39F00009D8B4E2D7000E2F6E5E
:103F2000000E2E6E2F500EE1650E2E5CD8B00AD01A
:103F300074EC39F00009D8A405D060EC39F0000920
:103F4000D8B4F0D7000E2F6E000E2E6E74EC39F040
:103F50000009D8A473EF2CF060EC39F00009D8A464
:103F600073EF2CF00ED0918C5F0EC4EC39F05F0E25
:103F7000C4EC39F0919C5F0EC4EC39F05F0EC4ECD8
:103F800039F02F500EE1C90E2E5CD8B00AD074EC77
:103F900039F00009D8A405D060EC39F00009D8B494
:103FA000E2D7000E2F6E000E2E6E2F500EE1650E22
:103FB0002E5CD8B00AD074EC39F00009D8A405D032
:103FC00060EC39F00009D8B4F0D7000E2F6E000E67
:103FD0002E6E74EC39F00009D8A473EF2CF060EC6D
:103FE00039F00009D8A473EF2CF00ED0918C5F0E3D
:103FF000C4EC39F05F0EC4EC39F0919C5F0EC4EC58
:1040000039F05F0EC4EC39F0910E2E5C010E2F5882
:10401000D8B00AD074EC39F00009D8A405D060EC0F
:1040200039F00009D8B4E2D7000E2F6E000E2E6EC4
:104030002F500EE1650E2E5CD8B00AD074EC39F02A
:104040000009D8A405D060EC39F00009D8B4F0D745
:10405000000E2F6E000E2E6E74EC39F00009D8A4FD
:1040600073EF2CF060EC39F00009D8A473EF2CF05A
:104070000ED0918C540EC4EC39F0540EC4EC39F0CF
:10408000919C540EC4EC39F0540EC4EC39F02F500E
:104090000EE1C90E2E5CD8B00AD074EC39F00009DC
:1040A000D8A405D060EC39F00009D8B4E2D7000EEE
:1040B0002F6E000E2E6E2F500EE1650E2E5CD8B0C6
:1040C0000AD074EC39F00009D8A405D060EC39F0BE
:1040D0000009D8B4F0D7000E2F6E000E2E6E74ECCF
:1040E00039F00009D8A473EF2CF060EC39F0000926
:1040F000D8A473EF2CF00ED0918C540EC4EC39F090
:10410000540EC4EC39F0919C540EC4EC39F0540EAA
:10411000C4EC39F02F500EE1C90E2E5CD8B00AD095
:1041200074EC39F00009D8A405D060EC39F000092E
:10413000D8B4E2D7000E2F6E000E2E6E2F500EE177
:10414000650E2E5CD8B00AD074EC39F00009D8A402
:1041500005D060EC39F00009D8B4F0D7000E2F6E0E
:10416000000E2E6E74EC39F00009D8A473EF2CF019
:1041700060EC39F00009D8A473EF2CF00ED0918CCC
:10418000500EC4EC39F0500EC4EC39F0919C500E36
:10419000C4EC39F0500EC4EC39F02F500EE1C90ECA
:1041A0002E5CD8B00AD074EC39F00009D8A405D040
:1041B00060EC39F00009D8B4E2D7000E2F6E000E83
:1041C0002E6E2F500EE1650E2E5CD8B00AD074EC26
:1041D00039F00009D8A405D060EC39F00009D8B452
:1041E000F0D7000E2F6E000E2E6E74EC39F0000921
:1041F000D8A473EF2CF060EC39F00009D8A473EF69
:104200002CF00ED0918C470EC4EC39F0470EC4EC64
:1042100039F0919C470EC4EC39F0470EC4EC39F0EC
:104220002F500EE1C90E2E5CD8B00AD074EC39F0D4
:104230000009D8A405D060EC39F00009D8B4E2D761
:10424000000E2F6E000E2E6E2F500EE1650E2E5CAE
:10425000D8B00AD074EC39F00009D8A405D060ECCD
:1042600039F00009D8B4F0D7000E2F6E000E2E6E74
:1042700074EC39F00009D8A473EF2CF060EC39F03D
:104280000009D8A473EF2CF00ED0918C470EC4EC2B
:1042900039F0470EC4EC39F0919C470EC4EC39F06C
:1042A000470EC4EC39F02F500EE1C90E2E5CD8B089
:1042B0000AD074EC39F00009D8A405D060EC39F0CC
:1042C0000009D8B4E2D7000E2F6E000E2E6E2F50CC
:1042D0000EE1650E2E5CD8B00AD074EC39F00009FE
:1042E000D8A405D060EC39F00009D8B4F0D7000E9E
:1042F0002F6E000E2E6E74EC39F00009D8A473EF07
:104300002CF060EC39F00009D8A473EF2CF00ED03B
:10431000918C500EC4EC39F0500EC4EC39F0919CE5
:10432000500EC4EC39F0500EC4EC39F02F500EE1B1
:10433000C90E2E5CD8B00AD074EC39F00009D8A4AC
:1043400005D060EC39F00009D8B4E2D7000E2F6E2A
:10435000000E2E6E2F500EE1650E2E5CD8B00AD0E6
:1043600074EC39F00009D8A405D060EC39F00009EC
:10437000D8B4F0D7000E2F6E000E2E6E74EC39F00C
:104380000009D8A473EF2CF060EC39F00009D8A430
:1043900073EF2CF00ED0918C540EC4EC39F0540E07
:1043A000C4EC39F0919C540EC4EC39F0540EC4ECBA
:1043B00039F02F500EE1C90E2E5CD8B00AD074EC43
:1043C00039F00009D8A405D060EC39F00009D8B460
:1043D000E2D7000E2F6E000E2E6E2F500EE1650EEE
:1043E0002E5CD8B00AD074EC39F00009D8A405D0FE
:1043F00060EC39F00009D8B4F0D7000E2F6E000E33
:104400002E6E74EC39F00009D8A473EF2CF060EC38
:1044100039F00009D8A473EF2CF00ED0918C5F0E08
:10442000C4EC39F05F0EC4EC39F0919C5F0EC4EC23
:1044300039F05F0EC4EC39F02F500EE1C90E2E5C3E
:10444000D8B00AD074EC39F00009D8A405D060ECDB
:1044500039F00009D8B4E2D7000E2F6E000E2E6E90
:104460002F500EE1650E2E5CD8B00AD074EC39F0F6
:104470000009D8A405D060EC39F00009D8B4F0D711
:10448000000E2F6E000E2E6E74EC39F00009D8A4C9
:1044900073EF2CF060EC39F00009D8A473EF2CF026
:1044A0000ED0918C6A0EC4EC39F06A0EC4EC39F06F
:1044B000919C6A0EC4EC39F06A0EC4EC39F02F50AE
:1044C0000EE1C90E2E5CD8B00AD074EC39F00009A8
:1044D000D8A405D060EC39F00009D8B4E2D7000EBA
:1044E0002F6E000E2E6E2F500EE1650E2E5CD8B092
:1044F0000AD074EC39F00009D8A405D060EC39F08A
:104500000009D8B4F0D7000E2F6E000E2E6E74EC9A
:1045100039F00009D8A473EF2CF060EC39F00009F1
:10452000D8A473EF2CF00ED0918C6A0EC4EC39F045
:104530006A0EC4EC39F0919C6A0EC4EC39F06A0E34
:10454000C4EC39F02F500EE1C90E2E5CD8B00AD061
:1045500074EC39F00009D8A405D060EC39F00009FA
:10456000D8B4E2D7000E2F6E000E2E6E2F500EE143
:10457000650E2E5CD8B00AD074EC39F00009D8A4CE
:1045800005D060EC39F00009D8B4F0D7000E2F6EDA
:10459000000E2E6E74EC39F00009D8A473EF2CF0E5
:1045A00060EC39F00009D8A473EF2CF00ED0918C98
:1045B0005F0EC4EC39F05F0EC4EC39F0919C5F0ED5
:1045C000C4EC39F05F0EC4EC39F02F500EE1C90E87
:1045D0002E5CD8B00AD074EC39F00009D8A405D00C
:1045E00060EC39F00009D8B4E2D7000E2F6E000E4F
:1045F0002E6E2F500EE1650E2E5CD8B00AD074ECF2
:1046000039F00009D8A405D060EC39F00009D8B41D
:10461000F0D7000E2F6E000E2E6E74EC39F00009EC
:10462000D8A473EF2CF060EC39F00009D8A473EF34
:104630002CF00ED0918C540EC4EC39F0540EC4EC16
:1046400039F0919C540EC4EC39F0540EC4EC39F09E
:104650002F500EE1C90E2E5CD8B00AD074EC39F0A0
:104660000009D8A405D060EC39F00009D8B4E2D72D
:10467000000E2F6E000E2E6E2F500EE1650E2E5C7A
:10468000D8B00AD074EC39F00009D8A405D060EC99
:1046900039F00009D8B4F0D7000E2F6E000E2E6E40
:1046A00074EC39F00009D8A473EF2CF060EC39F009
:1046B0000009D8A473EF2CF00ED0918C5F0EC4ECDF
:1046C00039F05F0EC4EC39F0919C5F0EC4EC39F008
:1046D0005F0EC4EC39F02F500EE1C90E2E5CD8B03D
:1046E0000AD074EC39F00009D8A405D060EC39F098
:1046F0000009D8B4E2D7000E2F6E000E2E6E2F5098
:104700000EE1650E2E5CD8B00AD074EC39F00009C9
:10471000D8A405D060EC39F00009D8B4F0D7000E69
:104720002F6E000E2E6E74EC39F00009D8A473EFD2
:104730002CF060EC39F00009D8A473EF2CF00ED007
:10474000918C6A0EC4EC39F06A0EC4EC39F0919C7D
:104750006A0EC4EC39F06A0EC4EC39F02F500EE149
:10476000C90E2E5CD8B00AD074EC39F00009D8A478
:1047700005D060EC39F00009D8B4E2D7000E2F6EF6
:10478000000E2E6E2F500EE1650E2E5CD8B00AD0B2
:1047900074EC39F00009D8A405D060EC39F00009B8
:1047A000D8B4F0D7000E2F6E000E2E6E74EC39F0D8
:1047B0000009D8A473EF2CF060EC39F00009D8A4FC
:1047C00073EF2CF00ED0918C6A0EC4EC39F06A0EA7
:1047D000C4EC39F0919C6A0EC4EC39F06A0EC4EC5A
:1047E00039F0910E2E5C010E2F58D8B00AD074EC1F
:1047F00039F00009D8A405D060EC39F00009D8B42C
:10480000E2D7000E2F6E000E2E6E2F500EE1C90E55
:104810002E5CD8B00AD074EC39F00009D8A405D0C9
:1048200060EC39F00009D8B4F0D7000E2F6E000EFE
:104830002E6E74EC39F00009D8A473EF2CF060EC04
:1048400039F00009D8A473EF2CF00ED0918C5F0ED4
:10485000C4EC39F05F0EC4EC39F0919C5F0EC4ECEF
:1048600039F05F0EC4EC39F02F500EE1C90E2E5C0A
:10487000D8B00AD074EC39F00009D8A405D060ECA7
:1048800039F00009D8B4E2D7000E2F6E000E2E6E5C
:104890002F500EE1650E2E5CD8B00AD074EC39F0C2
:1048A0000009D8A405D060EC39F00009D8B4F0D7DD
:1048B000000E2F6E000E2E6E74EC39F00009D8A495
:1048C00073EF2CF060EC39F00009D8A473EF2CF0F2
:1048D0000ED0918C5F0EC4EC39F05F0EC4EC39F051
:1048E000919C5F0EC4EC39F05F0EC4EC39F02F5090
:1048F0000EE1C90E2E5CD8B00AD074EC39F0000974
:10490000D8A405D060EC39F00009D8B4E2D7000E85
:104910002F6E000E2E6E2F500EE1650E2E5CD8B05D
:104920000AD074EC39F00009D8A405D060EC39F055
:104930000009D8B4F0D7000E2F6E000E2E6E74EC66
:1049400039F00009D8A473EF2CF060EC39F00009BD
:10495000D8A473EF2CF00ED0918C540EC4EC39F027
:10496000540EC4EC39F0919C540EC4EC39F0540E42
:10497000C4EC39F02F500EE1C90E2E5CD8B00AD02D
:1049800074EC39F00009D8A405D060EC39F00009C6
:10499000D8B4E2D7000E2F6E000E2E6E2F500EE10F
:1049A000650E2E5CD8B00AD074EC39F00009D8A49A
:1049B00005D060EC39F00009D8B4F0D7000E2F6EA6
:1049C000000E2E6E74EC39F00009D8A473EF2CF0B1
:1049D00060EC39F00009D8A473EF2CF00ED0918C64
:1049E0006A0EC4EC39F06A0EC4EC39F0919C6A0E80
:1049F000C4EC39F06A0EC4EC39F02F500EE1C90E48
:104A00002E5CD8B00AD074EC39F00009D8A405D0D7
:104A100060EC39F00009D8B4E2D7000E2F6E000E1A
:104A20002E6E2F500EE1650E2E5CD8B00AD074ECBD
:104A300039F00009D8A405D060EC39F00009D8B4E9
:104A4000F0D7000E2F6E000E2E6E74EC39F00009B8
:104A5000D8A473EF2CF060EC39F00009D8A473EF00
:104A60002CF00ED0918C5F0EC4EC39F05F0EC4ECCC
:104A700039F0919C5F0EC4EC39F05F0EC4EC39F054
:104A80002F500EE1C90E2E5CD8B00AD074EC39F06C
:104A90000009D8A405D060EC39F00009D8B4E2D7F9
:104AA000000E2F6E000E2E6E2F500EE1650E2E5C46
:104AB000D8B00AD074EC39F00009D8A405D060EC65
:104AC00039F00009D8B4F0D7000E2F6E000E2E6E0C
:104AD00074EC39F00009D8A473EF2CF060EC39F0D5
:104AE0000009D8A473EF2CF00ED0918C540EC4ECB6
:104AF00039F0540EC4EC39F0919C540EC4EC39F0EA
:104B0000540EC4EC39F02F500EE1650E2E5CD8B077
:104B10000AD074EC39F00009D8A405D060EC39F063
:104B20000009D8B4E2D7000E2F6E000E2E6E2F5063
:104B30000EE1330E2E5CD8B00AD074EC39F00009C7
:104B4000D8A405D060EC39F00009D8B4F0D7000E35
:104B50002F6E000E2E6E74EC39F00009D8A473EF9E
:104B60002CF060EC39F00009D8A473EF2CF00ED0D3
:104B7000918C500EC4EC39F0500EC4EC39F0919C7D
:104B8000500EC4EC39F0500EC4EC39F02F500EE149
:104B9000650E2E5CD8B00AD074EC39F00009D8A4A8
:104BA00005D060EC39F00009D8B4E2D7000E2F6EC2
:104BB000000E2E6E2F500EE1330E2E5CD8B00AD0B0
:104BC00074EC39F00009D8A405D060EC39F0000984
:104BD000D8B4F0D7000E2F6E000E2E6E74EC39F0A4
:104BE0000009D8A473EF2CF060EC39F00009D8A4C8
:104BF00073EF2CF00ED0918C540EC4EC39F0540E9F
:104C0000C4EC39F0919C540EC4EC39F0540EC4EC51
:104C100039F02F500EE1C90E2E5CD8B00AD074ECDA
:104C200039F00009D8A405D060EC39F00009D8B4F7
:104C3000E2D7000E2F6E000E2E6E2F500EE1650E85
:104C40002E5CD8B00AD074EC39F00009D8A405D095
:104C500060EC39F00009D8B4F0D7000E2F6E000ECA
:104C60002E6E74EC39F00009D8A473EF2CF060ECD0
:104C700039F00009D8A473EF2CF00ED0918C6A0E95
:104C8000C4EC39F06A0EC4EC39F0919C6A0EC4ECA5
:104C900039F06A0EC4EC39F02F500EE1C90E2E5CCB
:104CA000D8B00AD074EC39F00009D8A405D060EC73
:104CB00039F00009D8B4E2D7000E2F6E000E2E6E28
:104CC0002F500EE1650E2E5CD8B00AD074EC39F08E
:104CD0000009D8A405D060EC39F00009D8B4F0D7A9
:104CE000000E2F6E000E2E6E74EC39F00009D8A461
:104CF00073EF2CF060EC39F00009D8A473EF2CF0BE
:104D00000ED0918C5F0EC4EC39F05F0EC4EC39F01C
:104D1000919C5F0EC4EC39F05F0EC4EC39F02F505B
:104D20000EE1C90E2E5CD8B00AD074EC39F000093F
:104D3000D8A405D060EC39F00009D8B4E2D7000E51
:104D40002F6E000E2E6E2F500EE1650E2E5CD8B029
:104D50000AD074EC39F00009D8A405D060EC39F021
:104D60000009D8B4F0D7000E2F6E000E2E6E74EC32
:104D700039F00009D8A473EF2CF060EC39F0000989
:104D8000D8A473EF2CF00ED0918C540EC4EC39F0F3
:104D9000540EC4EC39F0919C540EC4EC39F0540E0E
:104DA000C4EC39F02F500EE1650E2E5CD8B00AD05D
:104DB00074EC39F00009D8A405D060EC39F0000992
:104DC000D8B4E2D7000E2F6E000E2E6E2F500EE1DB
:104DD000330E2E5CD8B00AD074EC39F00009D8A498
:104DE00005D060EC39F00009D8B4F0D7000E2F6E72
:104DF000000E2E6E74EC39F00009D8A473EF2CF07D
:104E000060EC39F00009D8A473EF2CF00ED0918C2F
:104E1000500EC4EC39F0500EC4EC39F0919C500E99
:104E2000C4EC39F0500EC4EC39F02F500EE1650E91
:104E30002E5CD8B00AD074EC39F00009D8A405D0A3
:104E400060EC39F00009D8B4E2D7000E2F6E000EE6
:104E50002E6E2F500EE1330E2E5CD8B00AD074ECBB
:104E600039F00009D8A405D060EC39F00009D8B4B5
:104E7000F0D7000E2F6E000E2E6E74EC39F0000984
:104E8000D8A473EF2CF060EC39F00009D8A473EFCC
:104E90002CF00ED0918C540EC4EC39F0540EC4ECAE
:104EA00039F0919C540EC4EC39F0540EC4EC39F036
:104EB0002F500EE1C90E2E5CD8B00AD074EC39F038
:104EC0000009D8A405D060EC39F00009D8B4E2D7C5
:104ED000000E2F6E000E2E6E2F500EE1650E2E5C12
:104EE000D8B00AD074EC39F00009D8A405D060EC31
:104EF00039F00009D8B4F0D7000E2F6E000E2E6ED8
:104F000074EC39F00009D8A473EF2CF060EC39F0A0
:104F10000009D8A473EF2CF00ED0918C5F0EC4EC76
:104F200039F05F0EC4EC39F0919C5F0EC4EC39F09F
:104F30005F0EC4EC39F02F500EE1C90E2E5CD8B0D4
:104F40000AD074EC39F00009D8A405D060EC39F02F
:104F50000009D8B4E2D7000E2F6E000E2E6E2F502F
:104F60000EE1650E2E5CD8B00AD074EC39F0000961
:104F7000D8A405D060EC39F00009D8B4F0D7000E01
:104F80002F6E000E2E6E74EC39F00009D8A473EF6A
:104F90002CF060EC39F00009D8A473EF2CF00ED09F
:104FA000918C6A0EC4EC39F06A0EC4EC39F0919C15
:104FB0006A0EC4EC39F06A0EC4EC39F02F500EE1E1
:104FC000C90E2E5CD8B00AD074EC39F00009D8A410
:104FD00005D060EC39F00009D8B4E2D7000E2F6E8E
:104FE000000E2E6E2F500EE1650E2E5CD8B00AD04A
:104FF00074EC39F00009D8A405D060EC39F0000950
:10500000D8B4F0D7000E2F6E000E2E6E74EC39F06F
:105010000009D8A473EF2CF060EC39F00009D8A493
:1050200073EF2CF00ED0918C5F0EC4EC39F05F0E54
:10503000C4EC39F0919C5F0EC4EC39F05F0EC4EC07
:1050400039F02F500EE1C90E2E5CD8B00AD074ECA6
:1050500039F00009D8A405D060EC39F00009D8B4C3
:10506000E2D7000E2F6E000E2E6E2F500EE1650E51
:105070002E5CD8B00AD074EC39F00009D8A405D061
:1050800060EC39F00009D8B4F0D7000E2F6E000E96
:105090002E6E74EC39F00009D8A473EF2CF060EC9C
:1050A00039F00009D8A473EF2CF00ED0918C470E84
:1050B000C4EC39F0470EC4EC39F0919C470EC4ECB7
:1050C00039F0470EC4EC39F0910E2E5C010E2F58CA
:1050D000D8B00AD074EC39F00009D8A405D060EC3F
:1050E00039F00009D8B4E2D7000E2F6E000E2E6EF4
:1050F0002F500EE1C90E2E5CD8B00AD074EC39F0F6
:105100000009D8A405D060EC39F00009D8B4F0D774
:10511000000E2F6E000E2E6E74EC39F00009D8A42C
:10512000E2D360EC39F00009D8A4DDD30ED0918C25
:10513000540EC4EC39F0540EC4EC39F0919C540E6A
:10514000C4EC39F0540EC4EC39F02F500EE1C90E06
:105150002E5CD8B00AD074EC39F00009D8A405D080
:1051600060EC39F00009D8B4E2D7000E2F6E000EC3
:105170002E6E2F500EE1650E2E5CD8B00AD074EC66
:1051800039F00009D8A405D060EC39F00009D8B492
:10519000F0D7000E2F6E000E2E6E74EC39F0000961
:1051A000D8A4A1D360EC39F00009D8A49CD30ED0C8
:1051B000918C540EC4EC39F0540EC4EC39F0919C2F
:1051C000540EC4EC39F0540EC4EC39F02F500EE1FB
:1051D000C90E2E5CD8B00AD074EC39F00009D8A4FE
:1051E00005D060EC39F00009D8B4E2D7000E2F6E7C
:1051F000000E2E6E2F500EE1650E2E5CD8B00AD038
:1052000074EC39F00009D8A405D060EC39F000093D
:10521000D8B4F0D7000E2F6E000E2E6E74EC39F05D
:105220000009D8A460D360EC39F00009D8A45BD39E
:105230000ED0918C500EC4EC39F0500EC4EC39F005
:10524000919C500EC4EC39F0500EC4EC39F02F5044
:105250000EE1C90E2E5CD8B00AD074EC39F000090A
:10526000D8A405D060EC39F00009D8B4E2D7000E1C
:105270002F6E000E2E6E2F500EE1650E2E5CD8B0F4
:105280000AD074EC39F00009D8A405D060EC39F0EC
:105290000009D8B4F0D7000E2F6E000E2E6E74ECFD
:1052A00039F00009D8A41FD360EC39F00009D8A464
:1052B0001AD30ED0918C470EC4EC39F0470EC4ECD3
:1052C00039F0919C470EC4EC39F0470EC4EC39F02C
:1052D0002F500EE1C90E2E5CD8B00AD074EC39F014
:1052E0000009D8A405D060EC39F00009D8B4E2D7A1
:1052F000000E2F6E000E2E6E2F500EE1650E2E5CEE
:10530000D8B00AD074EC39F00009D8A405D060EC0C
:1053100039F00009D8B4F0D7000E2F6E000E2E6EB3
:1053200074EC39F00009D8A4DED260EC39F0000941
:10533000D8A4D9D20ED0918C470EC4EC39F0470EC8
:10534000C4EC39F0919C470EC4EC39F0470EC4EC24
:1053500039F02F500EE1C90E2E5CD8B00AD074EC93
:1053600039F00009D8A405D060EC39F00009D8B4B0
:10537000E2D7000E2F6E000E2E6E2F500EE1650E3E
:105380002E5CD8B00AD074EC39F00009D8A405D04E
:1053900060EC39F00009D8B4F0D7000E2F6E000E83
:1053A0002E6E74EC39F00009D8A49DD260EC39F06F
:1053B0000009D8A498D20ED0918C500EC4EC39F0CC
:1053C000500EC4EC39F0919C500EC4EC39F0500EE4
:1053D000C4EC39F02F500EE1C90E2E5CD8B00AD0C3
:1053E00074EC39F00009D8A405D060EC39F000095C
:1053F000D8B4E2D7000E2F6E000E2E6E2F500EE1A5
:10540000650E2E5CD8B00AD074EC39F00009D8A42F
:1054100005D060EC39F00009D8B4F0D7000E2F6E3B
:10542000000E2E6E74EC39F00009D8A45CD260EC4A
:1054300039F00009D8A457D20ED0918C540EC4EC88
:1054400039F0540EC4EC39F0919C540EC4EC39F090
:10545000540EC4EC39F02F500EE1C90E2E5CD8B0BA
:105460000AD074EC39F00009D8A405D060EC39F00A
:105470000009D8B4E2D7000E2F6E000E2E6E2F500A
:105480000EE1650E2E5CD8B00AD074EC39F000093C
:10549000D8A405D060EC39F00009D8B4F0D7000EDC
:1054A0002F6E000E2E6E74EC39F00009D8A41BD2BA
:1054B00060EC39F00009D8A416D20ED0918C5F0EA2
:1054C000C4EC39F05F0EC4EC39F0919C5F0EC4EC73
:1054D00039F05F0EC4EC39F02F500EE1C90E2E5C8E
:1054E000D8B00AD074EC39F00009D8A405D060EC2B
:1054F00039F00009D8B4E2D7000E2F6E000E2E6EE0
:105500002F500EE1650E2E5CD8B00AD074EC39F045
:105510000009D8A405D060EC39F00009D8B4F0D760
:10552000000E2F6E000E2E6E74EC39F00009D8A418
:10553000DAD160EC39F00009D8A4D5D10ED0918C25
:105540006A0EC4EC39F06A0EC4EC39F0919C6A0E14
:10555000C4EC39F06A0EC4EC39F02F500EE1C90EDC
:105560002E5CD8B00AD074EC39F00009D8A405D06C
:1055700060EC39F00009D8B4E2D7000E2F6E000EAF
:105580002E6E2F500EE1650E2E5CD8B00AD074EC52
:1055900039F00009D8A405D060EC39F00009D8B47E
:1055A000F0D7000E2F6E000E2E6E74EC39F000094D
:1055B000D8A499D160EC39F00009D8A494D10ED0C8
:1055C000918C6A0EC4EC39F06A0EC4EC39F0919CEF
:1055D0006A0EC4EC39F06A0EC4EC39F02F500EE1BB
:1055E000C90E2E5CD8B00AD074EC39F00009D8A4EA
:1055F00005D060EC39F00009D8B4E2D7000E2F6E68
:10560000000E2E6E2F500EE1650E2E5CD8B00AD023
:1056100074EC39F00009D8A405D060EC39F0000929
:10562000D8B4F0D7000E2F6E000E2E6E74EC39F049
:105630000009D8A458D160EC39F00009D8A453D19E
:105640000ED0918C5F0EC4EC39F05F0EC4EC39F0D3
:10565000919C5F0EC4EC39F05F0EC4EC39F02F5012
:105660000EE1C90E2E5CD8B00AD074EC39F00009F6
:10567000D8A405D060EC39F00009D8B4E2D7000E08
:105680002F6E000E2E6E2F500EE1650E2E5CD8B0E0
:105690000AD074EC39F00009D8A405D060EC39F0D8
:1056A0000009D8B4F0D7000E2F6E000E2E6E74ECE9
:1056B00039F00009D8A417D160EC39F00009D8A45A
:1056C00012D10ED0918C540EC4EC39F0540EC4ECAF
:1056D00039F0919C540EC4EC39F0540EC4EC39F0FE
:1056E0002F500EE1C90E2E5CD8B00AD074EC39F000
:1056F0000009D8A405D060EC39F00009D8B4E2D78D
:10570000000E2F6E000E2E6E2F500EE1650E2E5CD9
:10571000D8B00AD074EC39F00009D8A405D060ECF8
:1057200039F00009D8B4F0D7000E2F6E000E2E6E9F
:1057300074EC39F00009D8A4D6D060EC39F0000937
:10574000D8A4D1D00ED0918C5F0EC4EC39F05F0E8E
:10575000C4EC39F0919C5F0EC4EC39F05F0EC4ECE0
:1057600039F02F500EE1C90E2E5CD8B00AD074EC7F
:1057700039F00009D8A405D060EC39F00009D8B49C
:10578000E2D7000E2F6E000E2E6E2F500EE1650E2A
:105790002E5CD8B00AD074EC39F00009D8A405D03A
:1057A00060EC39F00009D8B4F0D7000E2F6E000E6F
:1057B0002E6E74EC39F00009D8A495D060EC39F065
:1057C0000009D8A490D00ED0918C6A0EC4EC39F0A8
:1057D0006A0EC4EC39F0919C6A0EC4EC39F06A0E82
:1057E000C4EC39F02F500EE1C90E2E5CD8B00AD0AF
:1057F00074EC39F00009D8A405D060EC39F0000948
:10580000D8B4E2D7000E2F6E000E2E6E2F500EE190
:10581000650E2E5CD8B00AD074EC39F00009D8A41B
:1058200005D060EC39F00009D8B4F0D7000E2F6E27
:10583000000E2E6E74EC39F00009D8A454D060EC40
:1058400039F00009D8A44FD00ED0918C6A0EC4EC68
:1058500039F06A0EC4EC39F0919C6A0EC4EC39F050
:105860006A0EC4EC39F0910E2E5C010E2F58D8B0A0
:105870000AD074EC39F00009D8A405D060EC39F0F6
:105880000009D8B4E2D7000E2F6E000E2E6E2F50F6
:105890000EE1650E2E5CD8B00AD074EC39F0000928
:1058A000D8A405D060EC39F00009D8B4F0D7000EC8
:1058B0002F6E000E2E6E74EC39F00009D8A413D0B0
:1058C00060EC39F00009D8A40ED0640E88EC39F0F1
:1058D00060EC39F00009D8A406D074EC39F0000966
:1058E000D8B447EF1CF0000E316E1200000120EE1C
:1058F00003F06951D9266A51DA22DECF65F0DDCF97
:1059000066F0C6EC36F0E806D8A497D060EC39F023
:105910000009D8B42BD069C0D9FF6AC0DAFFDF50C4
:1059200000016B6F000120EE01F06951D9266A5128
:10593000DA22DF5000016C6F00016C51010D270E5F
:10594000F324F66E100EF420F76EF86A000EF822BB
:105950000800F55000016B5DD8B008D069C0D9FFD0
:105960006AC0DAFFDF2A190E88EC39F060EC39F0F2
:105970000009D8B42CD069C0D9FF6AC0DAFFDF5063
:1059800000016B6F000120EE01F06951D9266A51C8
:10599000DA22DF5000016C6F00016C51010D270EFF
:1059A000F324F66E100EF420F76EF86A000EF8225B
:1059B0000800F55000016B19D8A409D069C0D9FFBF
:1059C0006AC0DAFF010EDF6E190E88EC39F074EC54
:1059D00039F00009D8B40FD069C0D9FF6AC0DAFF26
:1059E000010EDF6408D069C0D9FF6AC0DAFFDF06A4
:1059F000190E88EC39F074EC39F00009D8B41200B3
:105A000069C0D9FF6AC0DAFFDE04D8A412003C5096
:105A1000010D1A0EF324F66E100EF420F76EF86ADC
:105A2000000EF82269C0D9FF6AC0DAFF0800F5CF7E
:105A3000DFFF190E88EC39F0120060EC39F0000934
:105A4000D8B42BD069C0D9FF6AC0DAFFDF5000019B
:105A50006B6F000120EE01F06951D9266A51DA22FC
:105A6000DF5000016C6F00016C51010D270EF32413
:105A7000F66E100EF420F76EF86A000EF822080099
:105A8000F55000016B5DD8B008D069C0D9FF6AC07D
:105A9000DAFFDF2A190E88EC39F060EC39F00009E2
:105AA000D8B42CD069C0D9FF6AC0DAFFDF5000013A
:105AB0006B6F000120EE01F06951D9266A51DA229C
:105AC000DF5000016C6F00016C51010D1A0EF324C0
:105AD000F66E100EF420F76EF86A000EF822080039
:105AE000F55000016B19D8A409D069C0D9FF6AC06C
:105AF000DAFF010EDF6E190E88EC39F074EC39F024
:105B00000009D8B40FD069C0D9FF6AC0DAFF010E0E
:105B1000DF6408D069C0D9FF6AC0DAFFDF06190E5A
:105B200088EC39F074EC39F00009D8B4120069C07F
:105B3000D9FF6AC0DAFFDE04D8A412003C50010D80
:105B40001A0EF324F66E100EF420F76EF86A000EAB
:105B5000F82269C0D9FF6AC0DAFF0800F5CFDFFF7D
:105B6000190E88EC39F0120026D19D9072EC37F0B6
:105B7000480E0001686F000E0001696F89EC34F077
:105B800010D0460E0001626F000E0001636FB1EC91
:105B900033F0480E0001686F000E0001696F89EC58
:105BA00034F048EC39F0E806D8B4EBD7A9D09D9092
:105BB000ABEC37F0470E0001686F000E0001696F13
:105BC00089EC34F010D0460E0001626F000E000127
:105BD000636F1DEC34F0470E0001686F000E00018A
:105BE000696F89EC34F048EC39F0020AD8B4EBD78D
:105BF00087D09D90E4EC37F0460E0001686F000EF0
:105C00000001696F89EC34F010D0460E0001626F1C
:105C1000000E0001636F51EC35F0460E0001686F15
:105C2000000E0001696F89EC34F048EC39F0040A89
:105C3000D8B4EBD765D09D9039EC37F03B0E00011E
:105C4000686F000E0001696F89EC34F010D03B0ED4
:105C50000001696F000E00016A6F76EC2CF03B0EBC
:105C60000001686F000E0001696F89EC34F048ECA8
:105C700039F0200AD8B4EBD743D09D908CEC36F0A5
:105C80003C0E0001686F000E0001696F89EC34F072
:105C900010D03B0E0001626F000E0001636F45ECF7
:105CA00033F03C0E0001686F000E0001696F89EC53
:105CB00034F048EC39F0100AD8B4EBD721D09D90DD
:105CC00000EC37F03D0E0001686F000E0001696FB7
:105CD00089EC34F010D03B0E0001626F000E000121
:105CE000636FADEC31F03D0E0001686F000E0001F6
:105CF000696F89EC34F048EC39F0080AD8B4EBD776
:105D00009D8059D056EC38F002D0ECEC30F048ECE5
:105D100039F000016D6F000E6DBF010E6D6F000157
:105D20006D05D8A448D0F1D71DEC38F002D0E1ECD5
:105D30002EF048EC39F000016D6F060E00016E6F19
:105D40000001D8906D3300016E2FFAD700016D0568
:105D5000D8A431D0ECD7060EF66E100EF76E000EFA
:105D6000F86E0800F5CF34F0130EF66E100EF76ED5
:105D7000000EF86E0800F5CF33F0020E4C6E1BD00B
:105D800048EC39F0010AD8B4F0D6030AD8B40FD7DA
:105D9000060AD8B42ED70C0AD8B491D7180AD8B4AA
:105DA0006CD7300AD8B447D7600AD8B4BDD7C00A78
:105DB000D8B4A8D7D0D748EC39F00009D8B412002D
:105DC000DFD7FCD072EC37F010D0430E0001626FC9
:105DD000000E0001636FB1EC33F0450E0001686FF7
:105DE000000E0001696F89EC34F048EC39F0410A8B
:105DF000D8A41200EAD7ABEC37F010D0430E000164
:105E0000626F000E0001636F1DEC34F0440E000160
:105E1000686F000E0001696F89EC34F048EC39F0CE
:105E2000420AD8A41200EAD7E4EC37F010D0430EAF
:105E30000001626F000E0001636F51EC35F0430EFC
:105E40000001686F000E0001696F89EC34F048ECC6
:105E500039F0440AD8A41200EAD700EC37F010D089
:105E6000360E0001626F000E0001636FADEC31F081
:105E7000380E0001686F000E0001696F89EC34F084
:105E800048EC39F0480AD8A41200EAD78CEC36F076
:105E900010D0360E0001626F000E0001636F45ECFA
:105EA00033F0370E0001686F000E0001696F89EC56
:105EB00034F048EC39F0500AD8A41200EAD739EC93
:105EC00037F010D0360E0001696F000E00016A6FC6
:105ED00076EC2CF0360E0001686F000E0001696F41
:105EE00089EC34F048EC39F0600AD8A41200EAD703
:105EF000400E4C6E48D0010EF66E100EF76E000E7E
:105F0000F86E0800F5CF34F0360EF66E100EF76E10
:105F1000000EF86E0800F5CF33F0960E88EC39F0DD
:105F200060EC39F0E806D8A402D0010E316E74ECB2
:105F300039F0E806D8A402D0000E316E3104D8A49E
:105F40000DD0110EF66E100EF76E000EF86E0800F2
:105F5000F5CF34F0100EF66E100E0CD0110EF66E5A
:105F6000100EF76E000EF86E0800F5CF34F0070E35
:105F7000F66E100EF76E000EF86E0800F5CF33F0D7
:105F8000960E88EC39F048EC39F0400AD8A412009B
:105F9000B2D7060EF66E100EF76E000EF86E080001
:105FA000F5CF34F0130EF66E100EF76E000EF86E8D
:105FB0000800F5CF33F0040E4C6E120048EC39F0B7
:105FC000400AD8B495D7010AD8B4FCD6030AD8B48D
:105FD00012D7060AD8B428D70C0AD8B43ED7180A64
:105FE000D8B454D7300AD8B46AD7D3D7000E466E87
:105FF000000E476E000E486E010E3B6E010E3C6EA9
:10600000100E3D6E070E3F6EE00E3E6E000E406EAF
:10601000000E416E000E426E000E00016F6F000E0A
:106020000001706F000E0001736F000E726F000EA2
:106030000001716F000E436E000E446E000E456E3F
:10604000010E366E010E376E070E3A6EE00E396E97
:10605000100E386E96EC39F0AEEC39F0F60E000109
:10606000616F3C0E606FD7EC39F0F2EC39F0EBEC7D
:1060700038F0A3EC39F0800E0001616F000E606F04
:10608000CEEC39F03550D8A40DEC39F03204D8B448
:10609000A5EC35F0B80E285C0B0E2958D8A00BD013
:1060A000000E296E000E286E050E496002D0492AA6
:1060B00002D0000E496E74EC39F0E806D8A413D073
:1060C000190E88EC39F074EC39F0E806D8A40BD03E
:1060D000000E296E000E286E050E496002D0492A76
:1060E00002D0000E496E60EC39F0E806D8A413D057
:1060F000190E88EC39F060EC39F0E806D8A40BD022
:10610000000E296E000E286E4950D8B402D0490600
:1061100002D0050E496E490E00016D6F000E0001A0
:106120006E6FD5EC32F048EC39F00009D8A4B4EC2D
:106130002DF02D5004E1320E2C5CD8A0A3D746C020
:1061400060F047C061F048C062F03B0E0001636F31
:10615000000E0001646F400E0001656F000E00012B
:10616000666F6F0E0001676F000E0001686F010E11
:106170000001696F51EC32F00009D8B404D03050FE
:10618000D8A420EC08F046C060F047C061F048C0D9
:1061900062F03B0E0001636F000E0001646F430E5E
:1061A0000001656F000E0001666F360E0001676F1B
:1061B000000E0001686F020E0001696F51EC32F0B1
:1061C0000009D8B404D03150D8A432EC1CF0000E31
:1061D0002D6E000E2C6E56D7B1D072EC37F010D069
:1061E000400E0001626F000E0001636FB1EC33F0EE
:1061F000420E0001686F000E0001696F89EC34F0F7
:1062000048EC39F0810AD8A41200EAD7ABEC37F099
:1062100010D0400E0001626F000E0001636F1DEC94
:1062200034F0410E0001686F000E0001696F89ECC7
:1062300034F048EC39F0820AD8A41200EAD7E4EC32
:1062400037F010D0400E0001626F000E0001636F46
:1062500051EC35F0400E0001686F000E0001696FCF
:1062600089EC34F048EC39F0840AD8A41200EAD75B
:10627000800E4C6E48D0010EF66E100EF76E000EBA
:10628000F86E0800F5CF34F0350EF66E100EF76E8E
:10629000000EF86E0800F5CF33F0960E88EC39F05A
:1062A00060EC39F0E806D8A402D0010E306E74EC30
:1062B00039F0E806D8A402D0000E306E3004D8A41D
:1062C0000DD0110EF66E100EF76E000EF86E08006F
:1062D000F5CF34F0100EF66E100E0CD0110EF66ED7
:1062E000100EF76E000EF86E0800F5CF34F0070EB2
:1062F000F66E100EF76E000EF86E0800F5CF33F054
:10630000960E88EC39F048EC39F0800AD8A41200D7
:10631000B2D7060EF66E100EF76E000EF86E08007D
:10632000F5CF34F0130EF66E100EF76E000EF86E09
:106330000800F5CF33F0040E4C6E120048EC39F033
:10634000800AD8B495D7010AD8B447D7030AD8B47D
:106350005DD7060AD8B473D7DCD760EC39F00009F2
:10636000D8B422D0000120EE03F06251D926635147
:10637000DA22330EDE5C080EDE58D8B015D00001EC
:1063800020EE03F06251D9266351DA22DE2A000E94
:10639000DD22000120EE02F06251D9266351DA229B
:1063A000DF2A190E88EC39F060EC39F00009D8B416
:1063B00025D0000120EE03F06251D9266351DA2284
:1063C000330EDE181BE1080EDE18D8A417D000012A
:1063D00020EE03F06251D9266351DA22D00EDE6E30
:1063E000070EDD6E000120EE02F06251D9266351E6
:1063F000DA22000EDF6E190E88EC39F074EC39F0F9
:106400000009D8B422D0000120EE03F06251D92651
:106410006351DA22D10EDE5C070EDE58D8A015D00B
:10642000000120EE03F06251D9266351DA22DE0624
:10643000000EDD5A000120EE02F06251D9266351B0
:10644000DA22DF06190E88EC39F074EC39F0000915
:10645000D8B41200000120EE03F06251D926635136
:10646000DA22D00EDE181CE1070EDE18D8A41200C6
:10647000000120EE03F06251D9266351DA22330E77
:10648000DE6E080EDD6E000120EE02F06251D926AC
:106490006351DA22630EDF6E190E88EC39F01200B8
:1064A00012007AD065C0D9FF66C0DAFF00016051E2
:1064B000DE18D8A41AD0000120EE01F06551D926CB
:1064C0006651DA22DE5000016119D8A40ED0000115
:1064D00020EE02F06551D9266651DA22DE50000125
:1064E0006219D8A402D0010E1200000E120065C07D
:1064F000D9FF66C0DAFF00016051DE18D8A44AD087
:10650000000120EE01F06551D9266651DA22DE50F5
:1065100000016119D8A43ED0000120EE02F06551BF
:10652000D9266651DA22DE5000016219D8A432D091
:1065300067C0D9FF68C0DAFF63C0E1FF64C0E2FF53
:10654000DE50E618D8A426D0000120EE01F06751F5
:10655000D9266851DA22000110EE01F06351E126DC
:106560006451E222DE50E618D8A414D0000120EED7
:1065700002F06751D9266851DA22000110EE02F0CC
:106580006351E1266451E222DE50E618D8A402D01D
:10659000010E1200000E120000016951010AD8B468
:1065A00081D7030AD8B4A3D7A0D757D03B0E000198
:1065B000686F000E0001696F89EC34F0200E4C6E9C
:1065C00012003C0E0001686F000E0001696F89EC3B
:1065D00034F0100E4C6E12003D0E0001686F000E7C
:1065E0000001696F89EC34F0080E4C6E1200460E03
:1065F0000001686F000E0001696F89EC34F0040E31
:106600004C6E1200470E0001686F000E0001696FAA
:1066100089EC34F0020E4C6E1200480E0001686FD7
:10662000000E0001696F89EC34F0010E4C6E12000F
:10663000060EF66E100EF76E000EF86E0800F5CF1F
:1066400034F0130EF66E100EF76E000EF86E0800A2
:10665000F5CF33F0030E4C6E12006DC0D9FF6EC043
:10666000DAFFDF50000AD8B4A1D7010AD8B4A9D7FD
:10667000030AD8B4B1D7010AD8B4B9D7070AD8B435
:10668000C1D7010AD8B4C9D7D3D760EC39F0000913
:10669000D8B415D0000120EE01F06251D926635123
:1066A000DA220C0EDF600BD0000120EE01F0625107
:1066B000D9266351DA22DF2A190E88EC39F060EC12
:1066C00039F00009D8B417D0000120EE01F0625172
:1066D000D9266351DA220C0EDE18D8A40CD00001A2
:1066E00020EE01F06251D9266351DA22010EDF6EED
:1066F000190E88EC39F074EC39F00009D8B415D0D3
:10670000000120EE01F06251D9266351DA22010E18
:10671000DF640BD0000120EE01F06251D9266351F5
:10672000DA22DF06190E88EC39F074EC39F0000932
:10673000D8B41200000120EE01F06251D926635155
:10674000DA22DE04D8A41200000120EE01F062512A
:10675000D9266351DA220C0EDF6E190E88EC39F05F
:10676000120060EC39F00009D8B415D0000120EE19
:1067700002F06251D9266351DA223B0EDF600BD062
:10678000000120EE02F06251D9266351DA22DF2A9D
:10679000190E88EC39F060EC39F00009D8B417D044
:1067A000000120EE02F06251D9266351DA223B0E3D
:1067B000DE18D8A40CD0000120EE02F06251D926D8
:1067C0006351DA22000EDF6E190E88EC39F074EC9A
:1067D00039F00009D8B415D0000120EE02F0625162
:1067E000D9266351DA22DF50D8B40BD0000120EE55
:1067F00002F06251D9266351DA22DF06190E88ECC5
:1068000039F074EC39F00009D8B41200000120EE20
:1068100002F06251D9266351DA22DF50D8A4120067
:10682000000120EE02F06251D9266351DA223B0EBC
:10683000DF6E190E88EC39F0120060EC39F00009B7
:10684000D8B415D0000120EE01F06251D926635171
:10685000DA223B0EDF600BD0000120EE01F0625126
:10686000D9266351DA22DF2A190E88EC39F060EC60
:1068700039F00009D8B417D0000120EE01F06251C0
:10688000D9266351DA223B0EDE18D8A40CD00001C1
:1068900020EE01F06251D9266351DA22000EDF6E3C
:1068A000190E88EC39F074EC39F00009D8B415D021
:1068B000000120EE01F06251D9266351DA22DF5047
:1068C000D8B40BD0000120EE01F06251D9266351FB
:1068D000DA22DF06190E88EC39F074EC39F0000981
:1068E000D8B41200000120EE01F06251D9266351A4
:1068F000DA22DF50D8A41200000120EE01F062512C
:10690000D9266351DA223B0EDF6E190E88EC39F07E
:10691000120068C0D9FF69C0DAFF630EDF6415D0CA
:10692000130EF66E100EF76E000EF86E0800F5CF1F
:1069300033F0060EF66E100EF76E000EF86E0800BD
:10694000F5CF34F0010E4C6E120068C0D9FF69C05B
:10695000DAFFDF5000016A6F00016A510001606FC9
:10696000616B000E0001636F0A0E626FF2EC34F08F
:106970000001605100016B6F68C0D9FF69C0DAFF88
:10698000DF5000016A6F00016A510001606F616BA6
:10699000000E0001636F0A0E626FF9EC35F0000122
:1069A000605100016C6F00016B51010D340EF32436
:1069B000F66E100EF420F76EF86A000EF82208004A
:1069C000F5CF34F000016C51010D340EF324F66E56
:1069D000100EF420F76EF86A000EF8220800F5CFCA
:1069E00033F01200000E0001656F000163AF08D0A4
:1069F0000001626D631FD8B0632B010E0001656F4B
:106A0000000161AF08D00001606D611FD8B0612B3B
:106A1000010E0001651B000E0001676F000E666F1E
